:100000000C9469020C9486020C9486020C9486026D
:100010000C9486020C9486020C9486020C94860240
:100020000C9486020C9486020C94DA0C0C941C0C32
:100030000C94561B0C9486020C9486020C94860237
:100040000C9486020C9486020C9486020C94860210
:100050000C9486020C94151B0C9486020C94860258
:100060000C9486020C9486020C9486020C948602F0
:100070000C9486020C9486020C9486020C948602E0
:100080000C9486020C9486020C9486020C948602D0
:100090000C9486020C9486020C9486020C948602C0
:1000A0000C9486020C9486020C94860296039B03A1
:1000B000A50399039E03A303A103DA04DA040D0543
:1000C0000D058A05A805AC06AC06AD05210632066D
:1000D0003206FD0700080308060809080C080F0887
:1000E0002F0A560A040C560A040CA20AC50A040C6C
:1000F000BA0BCA0B05010980A101850319012AB7B2
:1001000000150126B700950175108100C0050C0986
:1001100001A101850419012AA002150126A002955A
:100120000175108100C005010906A10185060507BA
:1001300019E029E7150025019508750181020507D9
:10014000190029EF1500250195F0750181020508B8
:100150001901290595057501910295017503910114
:10016000C005010902A1010901A100050919012920
:10017000081500250195087501810205010930095E
:10018000311581257F95027508810609381581256D
:100190007F950175088106050C0A38021581257FB7
:1001A000950175088106C0C00660FF0961A10109BB
:1001B00062150026FF00952075088102096315006D
:1001C00026FF00952075089102C005010906A101CE
:1001D000050719E029E71500250195087501810239
:1001E0009501750881010507190029FF150026FFF3
:1001F00000950675088100050819012905150025D7
:1002000001950575019102950175039101C00902DF
:100210007400040100A0FA090400000103010100B8
:100220000921110100012244000705810308000192
:10023000090401000203000000092111010001224C
:1002400022000705830320000107050403200001A5
:100250000904020001030102000921110100012229
:100260004700070582030800010904030001030099
:100270000000092111010001226D000705850320FE
:1002800000011201000200000008973274490100C9
:100290000102000116034500720067006F00440070
:1002A0006F007800200045005A00000028035A0023
:1002B00053004100200054006500630068006E0098
:1002C0006F006C006F006700790020004C00610037
:1002D0006200730000000403090435002B00E400F1
:1002E000E100215200001E00140004311D002252C2
:1002F0004D001F001A0016001B0001004C002000DA
:10030000080007000600E30028002100150009008E
:100310001900E2004A00220017000A000500000050
:10032000010029000100000001000000010001009F
:100330000100000031000000010023001C000B0040
:10034000110000000100240018000D0010002D0015
:100350004B0025000C000E0036002E002C0026005D
:1003600012000F003700E6002A0027001300333187
:10037000380022524E0030002F003400E500215298
:1003800000002900010001000100010000003A0006
:10039000010001000100010001003B0001005000CC
:1003A0000100010001003C00520051000100010069
:1003B00001003D0001004F000100010001003E006E
:1003C0000100010001000000010001000100000027
:1003D0000100000001000100010000000100000018
:1003E00001003F00300234003000000001004000F6
:1003F000240021001E0027000100410025002200EA
:100400001F00080001004200260023002000010018
:100410000100430025022F001A00010001004400E2
:100420004500010001000100000001000100010081
:1004300001000100000001000100010001000100B5
:10044000010001000100CF0001000100BD0001001A
:10045000CD00CE0001000100BE0001000100D0006F
:100460000100D100010001000100010001000000B5
:100470000100010001000000010000000100010076
:100480000100000001000000010001000100010066
:1004900001000000010001000100AC000100D200D9
:1004A00001000100AD00AE0001000100A900010043
:1004B0000100AB0001000100AA00010001000100E1
:1004C00001000100A800010001000100010001007D
:1004D000000011241FBECFEFDAE0DEBFCDBF11E078
:1004E000A0E0B1E0E2EFFEE302C005900D92AA3673
:1004F000B107D9F722E0AAE6B1E001C01D92AE39FA
:10050000B207E1F70E94ED130C94771F0C940000E2
:10051000A6E0B0E0EEE8F2E00C94AF1D49835A8308
:1005200049815A81992361F0222351F0CA010E9426
:10053000A517182F682F89819A810E94151804C069
:10054000CA010E94E117182F69817A81812F0E94C8
:10055000440F2696E3E00C94CB1D109271010E948B
:10056000B1182FEF84E39CE0215080409040E1F7E8
:1005700000C000009AE088E10FB6F894A895809337
:1005800060000FBE90936000FFCFA4E3B0E0EBECFF
:10059000F2E00C94AC1D4FA758AB69AB7AAB8BABB8
:1005A0009CAB192F911110922502DE01989687E0DD
:1005B000FD0111928A95E9F786E0FE01BF96019050
:1005C0000D928A95E1F7EFA4F8A80BA90023C9F0D2
:1005D00021E0A7016AA57BA5C8010E94880280913D
:1005E0009F01882371F0111102C087E001C086E0ED
:1005F0008983EA82FB828EEF8C83CE0101960E9472
:100600000E0EE8A6F9A60CA71DA787E0FE01B89676
:10061000DE01919601900D928A95E1F7CE018196C7
:100620000E946B1181112CC087E0FE01B196DE01A2
:10063000119601900D928A95E1F76DA1662301F163
:100640002091C90130E0C901019687709927409136
:10065000020250E08417950761F16D8397E0929F45
:10066000D001939FB00D1124A653BE4FFE013196C9
:1006700001900D929A95E1F78093C9010E940811AB
:1006800017E0809102029091C901891709F1189F22
:10069000C001112486539E4F0E946B118823C1F024
:1006A0008091020290E00196877099278093020260
:1006B000E8CF109271010E94B1181092C9011092F6
:1006C0000202E2ECF1E087E0DF011D928A95E9F792
:1006D000E496E6E00C94C81D982F92959F7019F04F
:1006E000892F24E001C020E0982F9695969511F06F
:1006F0002E5F892F982F969509F02F5F822F0895EE
:10070000CF93C82F0E946C0356985E9825982D9819
:1007100026982E9827982F9890E0FC013197E73083
:10072000F105A8F4EA5AFF4F0C94431E259A2D9A1E
:100730000EC0259A2D9A269A2E9A09C0259A2D9A8E
:1007400004C0259A2D9A269A2E9A279A2F9A8C2F92
:10075000CF910895A0E0B0E0E0EBF3E00C94A91D88
:10076000FC018481882309F41EC38F0121E04081AC
:1007700051816281738195810E948802EC0181150B
:100780009E47D1F5F80185818823B1F190913E0211
:1007900081E0890F8770987F853020F4892B8093C2
:1007A0003E0202C090933E0280913E028770FFEFAE
:1007B0008F9FC001112495958795959587959927C9
:1007C000909389008093880090938B0080938A0097
:1007D00090938D0080938C0040913E0250913F0297
:1007E00060914002709141028FE090E00E940D1EE6
:1007F000809143020E948003F8018581882309F4D7
:1008000083C0C330FCE7DF0709F45DC048F4C115BD
:100810008CE7D807A9F0C130DC4709F45AC074C08E
:10082000CB35ECE7DE0709F45EC0CC35FCE7DF072B
:1008300009F451C0CA35DC4709F066C081E054C0F4
:10084000109271010E94B1188FEF94E3ECE0815097
:100850009040E040E1F700C00000F89481E0809310
:10086000E00080E28093D8001092C9008FE19EE4FE
:100870000197F1F700C000001DBA109268001CBC7F
:1008800010BE1FBA10927A0010926E0010926F0084
:1008900010927100109272001092C9001092BC0068
:1008A00014B817B81AB81DB810BA1092BC0015B811
:1008B00018B81BB81EB811BA0C94003F80910302FF
:1008C0008770A9F470C26FEF7FEF80E090E00E9424
:1008D000191E0E94AD0280916F0182FB882780F96A
:1008E00091E0892701C080E00E94F1100DC0F8015D
:1008F0008581882309F457C280916F0182FF53C21A
:1009000082E00E94DA104FC2F8018581C081D18156
:10091000882349F0CE010E94A517F82E682FCE013A
:100920000E94151804C0CE010E94E117F82EBE01E6
:100930008F2D0E94440F0E94610FF82EC92FC82EE0
:10094000F801D581E680E2949FE0E92280910302DC
:10095000877001F1DD23F1F08C2F807F803469F006
:1009600080E28F0D8830B0F08C2F807E803229F4A9
:10097000F1E0FF1578F4EE2069F080916F0182FFBD
:1009800009C082E00E94DA10809103028770DD24A2
:10099000D3948111D12CBC2EB2948FE0B8228B2D30
:1009A00090E08C30910508F0D7C1FC01E35AFF4F6D
:1009B0000C94431E8C2F807FCF70882311F0C2953A
:1009C000C07FDD23B9F0CC2309F4B4C180E28F0DE0
:1009D000883010F0C11006C090917101C92BC093EE
:1009E000710105C090912502C92BC09325020E9478
:1009F0008510A0C18F2D0E94C719CC2309F4ACC16A
:100A000080E28F0D883088F1CC2079F1C0959091EB
:100A10002502C923C09325022BC08C2F807FCF7065
:100A2000803211F0C295C07F8F2DCC2029F021E0BB
:100A3000C21609F44CC055C080916F0182FD1BC0E5
:100A4000DD2369F0CC2339F090917101C92BC0935B
:100A500071010E94851080E00E942B1A7DC180E008
:100A60000E94C719CC2309F477C18C2F0E947E10F5
:100A70000E94851071C1DD2381F0EE20B1F181E08B
:100A8000E8126AC1909124028C2F8923C81709F4B7
:100A900063C1C92BC09324025FC1E1105DC18C2FDB
:100AA0000E94DE18809124029C2F982329F09C2F0D
:100AB000909589238093240280916D019C2F982327
:100AC00009F44AC1C0958C2380936D0145C1DD2393
:100AD00029F091E09E1508F43FC107C0E1103CC128
:100AE00015C0DD2331F0E11025C18C2F0E94E518DF
:100AF00033C1EE2059F0893309F02BC1EFEFF7EE47
:100B000023E0E150F0402040E1F721C18C2F0E940A
:100B1000DE1822C18C2F86958695837019F081305E
:100B200061F01AC1DD2321F08F2D9C2F937002C03C
:100B300080E090E00E94011C15C1DD2321F08F2D83
:100B40009C2F937002C080E090E00E94DC1B0AC1E1
:100B50006D2F8F2D0E94EF1805C18C2F8370A9F582
:100B6000D111FEC04F2D429546954770440F440F5A
:100B70008F2D8F7090E09C01042E01C0220F0A94EB
:100B8000EAF7F4FE08C08FE090E001C0880F4A95B4
:100B9000EAF7809501C080E0C695C695C370C23063
:100BA00069F088F490914202C13019F0822B8923B8
:100BB00002C0922B892B0E948B18D2C0822B90915D
:100BC00042028927F8CF822BF6CFDD2319F08C2F34
:100BD000817001C08695882309F4C2C04F2D4295CB
:100BE00046954770440F440F8F2D8F7090E09C0105
:100BF000042E01C0220F0A94EAF7F4FE08C08FE029
:100C000090E001C0880F4A95EAF7809501C080E026
:100C1000C695C695C370C23059F078F490914302DE
:100C2000C13019F0822B892309C0922B892B06C071
:100C3000822B90914302892701C0822B0E944A187F
:100C40008FC0CF70DD2339F08C2F0E947F188F2D3D
:100C50000E94E51885C08F2D0E94DE188C2F0E94FF
:100C600072187EC08F2D92EFC91669F19C1538F06D
:100C7000E0EFCE1659F0F1EFCF1601F157C023EF98
:100C8000C21641F194EFC916A9F050C0DD2369F0F6
:100C9000E11062C0CF7181E090E001C0880FCA9579
:100CA000EAF79091430289271FC0E1E0EE1508F4AE
:100CB00053C0F0CF80916F0182FD19C0DD2329F070
:100CC0008C2F8F7126C0DD23D9F38C2F8F710E945A
:100CD000721842C0DD2339F0CF7181E001C0880F66
:100CE000CA95EAF701C080E00E944A1835C0DD23AA
:100CF00099F0CF718C2F0E947F1880916F0182FF35
:100D000007C0F8E0CF9FC0011124836080930302E5
:100D10008C2F0E947F1820C081E00E94DA1021E011
:100D20002E15D0F482E00E94DA1016C0DD2321F0E7
:100D3000EE2031F28F2D90CEEE2039F2893349F436
:100D40008FEF97EEE3E081509040E040E1F700C084
:100D500000008F2D0E94C71988EF8B0D843010F48E
:100D60000E94261CDD20A9F08091030280FD11C0A5
:100D7000F80115828695869586950E947F18C80190
:100D80000E94AA03809103028695869586950E940B
:100D9000721820E0F8014081518162817381848161
:100DA00095810E948802CDB7DEB7E9E00C94C51D9D
:100DB00080E290E09093100180930F0180916C018C
:100DC00081110EC00E94BC1C81E080936C012FEF4A
:100DD00083ED90E3215080409040E1F700C0000097
:100DE00060E570E080E40E94C21C90931001809343
:100DF0000F01892B09F04EC060E570E080E00E9491
:100E0000351D9093100180930F01892B09F042C08A
:100E100060E570E080E00E94351D909310018093A2
:100E20000F01892BB9F560E570E08FE30E94351D55
:100E30009093100180930F01892B61F50E94881D0A
:100E400060E570E080E40E94C21C909310018093E2
:100E50000F01892BF9F460E570E08CE00E94351DEC
:100E60009093100180930F01892BA1F460E570E04D
:100E700080E00E94351D9093100180930F01892B13
:100E800049F460E570E08FE30E94351D90931001F6
:100E900080930F010E94881D80910F010895CF93C8
:100EA000DF9356985E9825982D9826982E98279827
:100EB0002F98C8E8D0E08FEF90E099838883AAE864
:100EC000B0E011969C938E93ECE8F0E091838083E0
:100ED000259A2D9A2FEF80E792E021508040904094
:100EE000E1F700C00000269A2E9A2FEF80E792E0EB
:100EF000215080409040E1F700C00000279A2F9ACF
:100F00002FEF80E792E0215080409040E1F700C051
:100F1000000025982D982FEF80E792E02150804027
:100F20009040E1F700C0000026982E982FEF80E750
:100F300092E0215080409040E1F700C000002798E7
:100F40002F9880913E0287702FEF829FC00111245D
:100F50009595879595958795992799838883119677
:100F60009C938E939183808356985E9825982D98B4
:100F700026982E9827982F98DF91CF910895CF9398
:100F8000E82F873080F580910F0190911001892B17
:100F900009F047C0CE2F60E570E080E40E94C21CDB
:100FA0009093100180930F01892BD1F460E570E0DC
:100FB00082E10E94351D9093100180930F01892BCF
:100FC00079F481E090E001C0880FCA95EAF760E506
:100FD00070E080950E94351D9093100180930F0161
:100FE0000E94881D1EC090E0FC013797E730F10594
:100FF000C0F4E759FF4F0C94431E209A289811C063
:10100000219A29980EC0229A2A980BC0239A2B98CD
:1010100008C0529A5A9805C0539A5B9802C03E9AEB
:101020004698CF9108952098289821982998229839
:101030002A9823982B9852985A9853985B983E98E0
:1010400046980895CF93873040F580910F01909195
:101050001001892B59F560E570E081E40E94C21C03
:101060009093100180930F01892B11F0C0E011C003
:1010700080E590E00E94641D97FF05C090931001E9
:1010800080930F01F3CFC82FC095109210011092DA
:101090000F010E94881D8C2F0AC09FB18FB1807FE5
:1010A000869586959370892B809501C080E0CF91BD
:1010B00008958098889A8198899A84988C9A8598BE
:1010C0008D9A86988E9A87988F9A08958091970125
:1010D00087FF11C08091E80082FD05C08091A101C9
:1010E0008111F8CF11C08091E8008B770BC08091FF
:1010F000A101882349F08091E80080FFF8CF80911A
:10110000E8008E778093E8000895982F973068F56F
:101110009093E900981739F07091EC002091ED0060
:101120005091F00003C0242F762F50E021FD02C023
:101130009F5FECCF3091EB003E7F3093EB0030911E
:10114000ED003D7F3093ED003091EB003160309346
:10115000EB007093EC002093ED005093F000209191
:10116000EE0027FDE5CF80E008958F708093E900C1
:1011700081E0089520919D0130919E012617370747
:1011800048F06115710539F42091E8002E7720931D
:10119000E80001C0B901FC0120E06115710579F199
:1011A0008091A1018823F1F18530F1F18091E8006F
:1011B00083FD3CC08091E80082FD2EC08091E80054
:1011C00080FFEBCF2091F3008091F20090E0922B12
:1011D0006115710551F08830910538F42191209303
:1011E000F100615071090196F3CF21E0089709F0F1
:1011F00020E08091E8008E778093E800CECF211127
:10120000CFCF0AC08091A101882361F0853061F0C1
:101210008091E80083FD0AC08091E80082FFF2CF50
:1012200080E0089582E0089583E0089581E00895C4
:1012300043E050E0BC0185E00E94F11A089545E0CA
:1012400050E0BC0182E00E94F11A0895CF93DF9331
:10125000EC0180910601811105C048E050E0BE011B
:1012600081E00BC080916E0187FF03C040E285E002
:1012700002C048E081E050E0BE010E94F11A80E225
:10128000FE01A4E7B1E001900D928A95E1F7DF91AC
:10129000CF910895AAE2B0E0E0E5F9E00C94AF1D2B
:1012A000E7E9F1E08FE991E02091F10021938E17B9
:1012B0009F07D1F780919801833009F463C030F41F
:1012C000813071F0823009F49FC0B6C08A3009F4D1
:1012D0008BC08B3009F46EC0893009F0ADC020C0DE
:1012E00080919701813A09F0A7C08091E800877F3B
:1012F0008093E80080919B0190919C01892B21F4BF
:1013000060E284E791E003C060E080E090E070E09C
:101310000E94BA088091E8008B778093E8008CC027
:1013200080919701813209F087C080919B01909153
:101330009C01009719F0039709F07EC08091E800A6
:10134000877F8093E8008091E80082FD05C080914E
:10135000A1018111F8CF70C02091F3008091F200BB
:1013600090E0922B029731F48091F100813011F0DE
:10137000863021F48091F100809373018091E80020
:101380008B7756C080919701813A09F055C08091C2
:101390009B0190919C01892B09F04EC08091E8003F
:1013A000877F8093E8008091E80080FFFCCF8091E8
:1013B000060139C0809197018132F1F580919B013E
:1013C00090919C01892BC1F58091E800877F8093E3
:1013D000E8000E94660880919901809306011092AE
:1013E00071010E94B11828C080919701813221F5C6
:1013F0008091E800877F8093E8000E9466088091D2
:101400009A018093720118C080919701813AA1F4EA
:101410008091E800877F8093E8008091E80080FF5A
:10142000FCCF809172018093F1008091E8008E776B
:101430008093E8000E9466088091E80083FFE4C181
:101440008091970190919801492F50E04A305105C1
:1014500008F0DAC1FA01E059FF4F0C94431E8038BE
:1014600021F0823809F0D0C108C080919401909198
:101470009501992389F082600FC080919B018F7044
:10148000873008F0C1C18093E9008091EB0085FBB3
:10149000882780F91092E9009091E800977F909357
:1014A000E8008093F1001092F10070C1282F2D7F89
:1014B00009F0AAC1882319F0823061F0A5C180919A
:1014C0009901813009F0A0C1933009F080E0809348
:1014D00095012EC08091990181112AC080919B01B4
:1014E0008F702FEF280F263008F08EC18093E9000F
:1014F0002091EB0020FF1CC0933021F48091EB0081
:10150000806214C09091EB0090619093EB0021E019
:1015100030E0A90102C0440F551F8A95E2F74093BD
:10152000EA001092EA008091EB0088608093EB0063
:101530001092E9008091E800877F8093E8000E9484
:10154000660862C1811160C1109199011F77809175
:10155000E3008078812B8093E3008091E800877F0F
:101560008093E8000E9466088091E80080FFFCCF2D
:101570008091E30080688093E300111102C082E053
:1015800001C083E08093A1013FC18058823008F000
:101590003BC12091990130919A012C3D53E03507D0
:1015A00079F583E08A838AE289834FB7F894DE0174
:1015B000139620E03EE051E2E32FF0E05093570015
:1015C000E49120FF03C0E295EF703F5FEF708E2F34
:1015D00090E0EA3010F0C79601C0C0968D939D93BD
:1015E0002F5F243149F74FBF8091E800877F8093B8
:1015F000E8006AE270E0CE0101960E94BA08B4C029
:1016000080919B0190919C01432F552743305105B8
:10161000A9F068F44130510509F405C14230510583
:1016200009F0F2C084E790E0EEE0F2E04BC0413216
:10163000510529F14232510589F1E6C0C9019927C6
:1016400081309105A1F058F0029709F0DDC0E4E97E
:10165000F2E0E4918E2F90E0E4E9F2E030C0E6EDB4
:10166000F2E0E4918E2F90E0E6EDF2E028C0ECEAA3
:10167000F2E0E4918E2F90E0ECEAF2E020C08430BA
:10168000910508F0C1C0880F991FFC01E35EFE4F71
:101690000190F081E02D89E090E014C08430910544
:1016A00008F0B2C0FC01EE0FFF1FEB5EFE4F019091
:1016B000F081E02DDC01AF5EBE4F8C9190E0009791
:1016C00009F4A2C02091E800277F2093E800209130
:1016D0009D0130919E012817390708F4C90140E0A7
:1016E000009789F12091A101222309F43DC0253002
:1016F000D9F12091E80023FD37C02091E80022FDB8
:101700002FC02091E80020FFEBCF4091F300209103
:10171000F20030E0342B009759F02830310540F4C6
:1017200044914093F100319601972F5F3F4FF3CFE3
:1017300041E02830310509F040E02091E8002E77A3
:101740002093E800CDCF4111CDCF0AC08091A101F7
:10175000882351F0853041F08091E80083FD04C07A
:101760008091E80082FFF2CF8091E8008B77809330
:10177000E8004AC0803809F047C08091E800877FC0
:101780008093E800809196018093F1008091E800B9
:101790008E77D3CE811138C08091990190919A01B2
:1017A000992702978CF58091E800877F8093E80065
:1017B00010919901109396010E946608111106C0BC
:1017C0008091E30087FD02C081E001C084E0809346
:1017D000A10142E061EC81E00E94850842E061ECF9
:1017E00082E00E94850842E261EC85E00E94850863
:1017F00042E261EC83E00E94850842E260EC84E012
:101800000E9485088091A1018091E80083FF10C0AB
:101810008091E800877F8093E8008091EB008062F0
:101820008093EB0005C082E190E0E2E8F2E04ACF6D
:10183000AA96E3E00C94CB1D1F920F920FB60F9265
:1018400011242F933F934F935F936F937F938F93C5
:101850009F93AF93BF93CF93DF93EF93FF93C09189
:10186000E900CF708091EC00D82FD17080FDD0E8D6
:101870001092E9008091F000877F8093F0007894C7
:101880000E944A091092E9008091F00088608093DC
:10189000F000CD2BCF70C093E900FF91EF91DF9165
:1018A000CF91BF91AF919F918F917F916F915F91F8
:1018B0004F913F912F910F900FBE0F901F90189551
:1018C000E8EDF0E080818E7F80831092E20010923C
:1018D000DA001092E100A0EEB0E08C9181608C9370
:1018E00080818F77808319BCA7EDB0E08C918E7FCB
:1018F0008C9380818F7E8083109270010895A0E088
:10190000B0E0E5E8FCE00C94AA1DC8EDD0E08881C9
:101910008F7E8883E7EDF0E080818160808384E0C2
:1019200082BF81E08093700188818E7F888302EE80
:1019300010E0F80110821092DA0081EEC82ED12C4E
:10194000F601108288818F778883888180688883F8
:1019500088818F7D888319BC1092A1011092960115
:10196000109295011092940190EEE92EF12CF7015E
:1019700080818B7F808388818160888342E060E002
:1019800080E00E948508F60180818E7F8083F801C7
:10199000808181608083808188608083F70180817D
:1019A0008E7F8083888180618883CDB7DEB7E8E051
:1019B0000C94C61D1F920F920FB60F9211242F93F5
:1019C0003F934F935F936F937F938F939F93AF93C7
:1019D000BF93EF93FF938091E10082FF09C0809154
:1019E000E20082FF05C08091E1008B7F8093E100DF
:1019F0008091DA0080FF2AC08091D80080FF26C045
:101A00008091DA008E7F8093DA008091D90080FF88
:101A100018C080E189BD82E189BD09B400FEFDCF17
:101A200081E08093A1018091700181110FC00E941B
:101A3000600C0E947F0C8091E20084608093E20041
:101A400005C019BC1092A101109270018091E100B3
:101A500080FF17C08091E20080FF13C08091E200F8
:101A60008E7F8093E2008091E20080618093E200AB
:101A70008091D80080628093D80019BC85E0809363
:101A8000A1018091E10084FF30C08091E20084FFD9
:101A90002CC080E189BD82E189BD09B400FEFDCF83
:101AA0008091D8008F7D8093D8008091E1008F7E57
:101AB0008093E1008091E2008F7E8093E20080912C
:101AC000E20081608093E20080919601882311F00A
:101AD00084E007C08091E30087FD02C081E001C07F
:101AE00083E08093A1018091A1018091E10083FFB7
:101AF00027C08091E20083FF23C08091E100877FAF
:101B00008093E10082E08093A10110929601809180
:101B1000E1008E7F8093E1008091E2008E7F8093D0
:101B2000E2008091E20080618093E20042E060E0A8
:101B300080E00E9485088091F00088608093F0002A
:101B4000FF91EF91BF91AF919F918F917F916F9195
:101B50005F914F913F912F910F900FBE0F901F906B
:101B600018952091E4003091E50095E64091EC0055
:101B7000842F817040FF23C08091E80080FD1DC04C
:101B80008091A101882399F0853099F08091EB0034
:101B900085FD11C04091E4005091E5002417350700
:101BA00029F3915011F09A01E1CF84E0089582E089
:101BB000089583E0089581E0089580E008954091BC
:101BC000E80042FFDDCF0895EF92FF920F931F933D
:101BD000CF93DF937C018B010E94B10D811119C05D
:101BE000E70101151105A1F08091E80085FD0AC00B
:101BF0008091E8008E778093E8000E94B10D8823E1
:101C000081F307C089918093F10001501109E9CF58
:101C100080E0CDB7DEB7E6E00C94C81DCF932091ED
:101C2000A101243011F5C091E900CF703091EC0092
:101C3000232F217030FD20E8C22B23E02093E90000
:101C40002091E80020FF0EC040E050E060E270E02C
:101C50000E94E40D811110929F018091E8008E771F
:101C60008093E800CF70C093E900CF91089580E0A1
:101C7000089590916E0192FF10C041E0282F2471C9
:101C8000243009F040E031E0282F2871283009F095
:101C900030E0431711F02CE0822793FF10C041E0A1
:101CA000282F2471243109F040E031E0282F2871D9
:101CB000283109F030E0431711F02CE082273091F1
:101CC0006F0130FF10C051E0282F2171213009F041
:101CD00050E041E0282F2871283009F040E05417E7
:101CE00011F029E0822731FF10C041E0282F217137
:101CF000213109F040E031E0282F2871283109F026
:101D000030E0431711F029E0822794FD877E089583
:101D10008238910569F1B0F48133910509F475C0F9
:101D200048F48932910509F467C08A32910509F4B3
:101D300071C008958533910509F459C0893391051F
:101D4000B9F00895833E910589F138F4803E9105FC
:101D5000D1F0823E910529F10895863E9105C9F1A1
:101D6000873E9105D9F1843E910509F06CC027C0EA
:101D700020916E0120FD57C021FD55C020916F01BB
:101D800023FD5BC0089580916E0180FD48C0809165
:101D90006F0180FF48C080916E0184FD46C083EED4
:101DA00051C080916E0182FF3CC0F5CF80916E01E1
:101DB00082FD37C080916F0180FD35C0ECCF8091EE
:101DC0006F0181FF36C080916E0184FD2EC087EEC9
:101DD00039C080916E0183FF2AC0F5CF80916E01DA
:101DE00083FD25C080916F0181FD23C0ECCF8091E0
:101DF0006E0185FD22C01FC080916E0185FD1BC054
:101E000080916F0183FF19C00AC080916E0186FD29
:101E100016C017C080916E0186FD13C010C089E303
:101E200011C082EE0FC080EE0DC080E00BC086EEC8
:101E300009C084EE07C085E305C089E203C08AE2D9
:101E400001C081E390E00895209102029091C901C0
:101E500057E02917A9F030E0529FF001539FF00D91
:101E60001124E653FE4F7181761306C070817813FA
:101E700003C07581741306C02F5F3F4F2770E9CFF1
:101E800080E0089581E008957E30B0F46630A0F4DB
:101E90008330A0F494E5899FF001112486E0789FB7
:101EA000E00DF11D1124E60FF11DEE0FFF1FE652AC
:101EB000FD4F85919491089580E001C081E090E00C
:101EC00008951F93CF93DF930E94880EEC01C115F4
:101ED00080E5D807E8F5C11590E4D90708F0A8C057
:101EE000C03ED10530F5CD3CD10508F094C0C83ACC
:101EF000D10578F4C53AD10508F083C0C130D105C9
:101F000009F47CC008F4F2C0C430D10508F0F1C077
:101F1000EDC0C33CD10508F0E9C0C85AD0E0CC0FF1
:101F2000DD1FC85DDE4F0990D881C02DCE019464BD
:101F3000E1C0C11580E2D80708F0CBC0C11591E01F
:101F4000D90708F06BC0C83ED10508F4D2C0CEC096
:101F5000C03682E5D80728F5C03492E5D90708F0E5
:101F600079C0C03282E5D80708F06CC0C11592E58F
:101F7000D90708F481C04C2F4695469580E2489FCA
:101F8000A0011124C37021E030E0C90102C0880F14
:101F9000991FCA95E2F7EA01C82BD92BCE019D689B
:101FA000A9C0C03A82E5D807B8F48C2F8F71C03829
:101FB00092E5D90708F07BC08695869590E2899FC7
:101FC00090011124C37081E090E002C0880F991F36
:101FD000CA95E2F79A6868C0C03C82E5D80708F461
:101FE0006DC0C03E92E5D90708F080C0CF71DD27F3
:101FF000DC2FCC27CE01806F906A7CC081E090E01E
:1020000079C0C55AD0E0CB5DDE4F8881C82FD0E0C3
:10201000CE0190646FC0CE0190656CC08D2F0E9480
:10202000390E182FCE0199270E94880E1F715CC0AF
:10203000CE0199270E94880ECC27DF70D06A8C2BA6
:102040009D2B58C0CF71D0E0DC2FCC27CE01816F03
:10205000906A50C08C2F8F718695869590E2899FEB
:1020600090011124C37081E090E002C0880F991F95
:10207000CA95E2F79C6818C08C2F8F710E94390EA8
:1020800095E0D695C7959A95E1F7CF70D0E0DC2F13
:10209000CC27282F30E084FF05C084E0220F331FB7
:1020A0008A95E1F7D069CE01822B932B23C090E073
:1020B000D82FCC27CE01846F906A1CC08C2F8F71D3
:1020C0000E94390E8F7190E0D82FCC27CE019062FC
:1020D00011C08D2F8F710E94390E182FCE019927B4
:1020E0000E94880E1F719062912B04C080E090E0E6
:1020F00001C0CE01DF91CF911F91089580959091FD
:1021000071018923809371010895909171018091EB
:102110002502982B9093A201809124028823D9F064
:10212000892B8093A20180910601882331F0809150
:102130006E0187FF02C08EE101C086E0E4EAF1E0B3
:1021400090E0815028F021912223D9F39F5FF9CFAD
:1021500091111092240240E250E064E072E082EAC1
:1021600091E00E946A1F892B21F180E2E2EAF1E00E
:10217000A4E0B2E001900D928A95E1F7E09191021E
:10218000F09192023097A9F080910601882359F0CE
:1021900080916E0187FF07C08091A2018093A30107
:1021A00086E08093A2010280F381E02D82EA91E033
:1021B00009950895909103028095892380930302E5
:1021C000282F277069F4981759F090916F0192FFAA
:1021D00007C08695869586950E9472181092030214
:1021E000089590916F0192FB222720F9281779F02A
:1021F00080FB92F990936F0160916E0170916F0175
:1022000084E090E00E94191E82E00E94DA10089596
:10221000809102029091C901891719F08F5F877030
:10222000FBCF0895CF93DF938091C80182958F7083
:1022300009F04EC08091C701882309F449C08091FC
:1022400002024091C9015091C3016091C201C09145
:10225000C401D091C50177E08417D1F190E0789F57
:10226000F001799FF00D1124DF01A653BE4F1496A3
:102270002C911497222349F111962C911197251333
:1022800024C02C91261321C015962C91159721114D
:102290001CC012962D913C9113972C1B3D0B283C92
:1022A000310598F48091C8018F7080618093C801D6
:1022B000E053FE4F80818F708061808382EC91E0DB
:1022C0000E94AA030E94081103C001968770C4CF20
:1022D000DF91CF910895A4E1B0E0E1E7F1E10C9442
:1022E000A61D8C0186E0F801DE011F9601900D927B
:1022F0008A95E1F7F8018481E58092EC892E91E0DE
:10230000992E9091C601911120C0882309F463C1D0
:10231000EE2009F442C0C8010E948E18F82E8823CE
:10232000E1F187E0F801D40101900D928A95E1F77F
:102330008091C601813031F48091C2019091C30136
:102340000E94D4170E94121148C1F801D080C180A8
:10235000A280B380F090C7012091C4013091C501E3
:10236000FF2009F4E7C0A501421B530B483C51056F
:1023700008F09DC0882309F430C18091C801282F3E
:10238000207F9091C301222361F09C1509F460C065
:10239000C8010E948E18811163C0C8010E94AA035F
:1023A0001AC19C1113C09091C2019D110FC0E11080
:1023B0000DC08F7080618093C80182EC91E00E9413
:1023C000AA038091C801F801868303C1E1103AC0D5
:1023D00040E06C2D8D2D0E94240F40E06C2D8D2D42
:1023E0000E94240FE82E8111F4C0DF86C88A8F85F1
:1023F00098890E94D417292F22952F70243020F419
:102400009F70223028F009C02A50223080F014C07A
:10241000992349F0811107C013C0992321F0F801D5
:102420009681907F69F0805E883030F409C0803FEB
:1024300038F0815F833020F0C8010E94AA03EF2C9E
:10244000FE2CCBC08091C80181608093C801C1C0BF
:102450009091C2019D119CCFE1109ACFF80198C0D4
:10246000EE2009F49ACF2091C801822F82958F70B7
:1024700090E002978CF08091C2019091C3019987FE
:102480008887BB86AA868091C6018C871D862E8789
:10249000CE0108960E94AA0387E0F801A2ECB1E001
:1024A00001900D928A95E1F70E94121194C09091CB
:1024B000C801292F207F51F482EC91E00E94AA03E9
:1024C00087E0F40111928A95E9F783C0882309F423
:1024D00084C08091C3018C110CC08091C2018D1108
:1024E00008C0E11006C0F8019683C8010E94AA0343
:1024F0006AC0C8010E948E18882309F44ECFEE20CE
:1025000009F44BCF2091C801822F82958F7090E003
:10251000029714F28091C2019091C3019A8389833A
:10252000BC82AB828091C6018D831E822F83CE0137
:102530000196B0CFA21AB30AF8ECAF16B10408F0B6
:1025400042C0882309F447C0FE2CEE2009F425CFB1
:102550008091C3018C1129C08091C2018D1125C0C9
:102560009091C80190FD18C0892F82958F70282FF7
:1025700030E02115310581F0F80196832F303105C7
:1025800041F08F5F982F9295907F86818F70892B75
:102590008683C8010E94AA0387E0F801A2ECB1E09B
:1025A00001900D928A95E1F718C0C8010E948E181B
:1025B000811172CF8091C80181608093C801C801E8
:1025C0000E94AA030AC087E0F40111928A95E9F7F4
:1025D00004C0F12C02C0FF24F3948F2D6496ECE02C
:1025E0000C94C21DA0E0B0E0E8EFF2E10C94AA1D4B
:1025F00080910F0190911001892B91F08091280218
:102600008F5F8093280281110BC00E94D80690E052
:102610009093100180930F01892B11F40E944F07B2
:1026200000E312E07801D0E0C0E087E0C82ECC0ED5
:102630008C2F0E94BF078C2D0E94BF078C2F0E94F9
:1026400022088F73F7019081891721F08083DD24A0
:10265000D39401C0D12C8C2D0E9422088F73F701D6
:102660009781891719F0878381E001C080E0D82A1B
:10267000DD290E941308CF5FFFEFEF1AFF0AC73072
:10268000A1F610922D02C0912C02CC2309F47DC03A
:102690000E944A1B20912A0230912B02AC01421B5E
:1026A000530B9A0190932B0280932A024F3F5105BE
:1026B00009F018F4452B19F102C02FEF30E0109209
:1026C0002C0210922902E0912E02F0912F02AF010C
:1026D000425F5F4F90E030E08081882341F028170F
:1026E00018F010829C2F03C0821B80833C2F3196F0
:1026F000E417F50789F730932C0290932902DD2324
:10270000B1F110922902E0912E02F0912F028091F6
:102710002D0290912C02A4E4B2E0AF01425F5F4F22
:102720006EE1E80128813C91321779F03081311156
:102730000CC060832C9398819227282F30E0292B9E
:1027400081E0232B09F480E091E0319611960F5F30
:102750001F4FE417F50729F780932D0290932C0261
:1027600080912D02CDB7DEB7E8E00C94C61D81E064
:10277000909129029923A1F38111C3CF0E944A1B92
:1027800090932B0280932A02BCCFD111F7CF80E027
:10279000EFCFA6E0B0E0EFECF3E10C94AE1D0E94A9
:1027A0004A1B8C0180912602909127020817190775
:1027B00081F019821A820E944A1B682F49815A812E
:1027C000792F80E090E00E94C502109327020093C9
:1027D00026022696E4E00C94CA1DA6E4B0E0E3EFDE
:1027E000F3E10C94A41D85B7806885BF85B7806828
:1027F00085BF84B7877F84BF0FB6F894A895809172
:102800006000886180936000109260000FBE90E0CD
:1028100080E80FB6F89480936100909361000FBE3A
:1028200087E39EE090936B0180936A010E94600CA5
:102830000E947F0C8091E20084608093E200789493
:102840008091A1018823A1F01091E9001F7090915F
:10285000EC00892F817090FD80E8182B1092E90020
:102860008091E80083FD0E944A091F701093E900DF
:1028700082E084BD93E095BD9AEF97BD80936E0092
:102880000E94D80690E09093100180930F010E945F
:1028900013080E945908E0E3F2E0A4E4B2E01192C8
:1028A0001D9222E0EE33F207D1F78EE090E00E9415
:1028B000491E80932E0290932F02FC010E961192D6
:1028C0008E179F07E1F789EA8093800089E0809363
:1028D000810024982C983F988AB18F7C8AB96E9891
:1028E000479A8BB180638BB9769A8FE090E00E9413
:1028F000DF1D60933E0270933F02809340029093ED
:10290000410267708FEF689FB0011124759567953C
:102910007595679577277093890060938800709309
:102920008B0060938A0070938D0060938C000E94EE
:102930004F0780E090E00E94E51D863E9E4F09F41F
:1029400072C066EE7EEF80E090E00E94191E60E0AB
:1029500082E090E00E94FB1D60E083E090E00E9436
:10296000FB1D1092420260E074E184E090E00E945E
:10297000191E60E086E090E00E94FB1D6FEF87E08B
:1029800090E00E94FB1D40E050E0BA0188E090E03A
:102990000E940D1E60E084E290E00E94FB1D60E05A
:1029A00087E190E00E94FB1D60E08CE090E00E94D7
:1029B000FB1D60E08DE090E00E94FB1D19821A82F1
:1029C0001B821C821D821E821F82188648E050E0F6
:1029D00068E170E0CE0101960E94EB1D40E050E0FE
:1029E000BA0180E290E00E940D1E10923E02109209
:1029F0003F02109240021092410284E080933E0216
:102A000040913E0250913F0260914002709141021C
:102A10008FE090E00E940D1E40E050E0BA0183E19B
:102A200090E00E940D1E82E090E00E94D71D8093EE
:102A3000520284E090E00E94E51D90936F01809324
:102A40006E0183E090E00E94D71D0E948B18809158
:102A500043020E94800387E091E09093920280936A
:102A6000910208E110E08091A101853009F058C081
:102A700030E4D32E40E1E42E52E1F52E8091A10105
:102A8000853009F047C08091A101843009F110928E
:102A900095020FB6F894A895009360000FBED092EF
:102AA000600083B7817F846083BF83B7816083BF09
:102AB0007894889583B78E7F83BF0FB6F894A895D6
:102AC00080916000886180936000109260000FBE6A
:102AD00080919501882391F20E94D80690E090930E
:102AE000100180930F010E9413080E945908E4E42A
:102AF000F2E0119222E0E235F207D9F70E94F212D9
:102B0000E4E4F2E081918111FFC182E0E235F8074F
:102B1000C9F7B4CF109271010E94B1180E94261C0F
:102B20000E94F21223E5C22E22E0D22EA4E4B2E0EB
:102B3000F60191918D91892792E0E136F90719F01C
:102B40008823B9F305C0811103C00E94C91355C081
:102B500094E4892E92E0992EF12CF40171904F01AA
:102B6000F601A080A724B9F1E12CBB24B39466241C
:102B700063948A2D8B2141F12296EFAE2297239602
:102B8000FFAE23970E944A1B25969FAF8EAF2597D5
:102B900026966FAE269791E0872D8B2109F490E061
:102BA00027969FAF279722964FAD229723965FAD2A
:102BB000239724966FAD249725967FAD259726966B
:102BC0008FAD26970E94C502E394BB0CF6E0EF128E
:102BD000D0CFF6017082F394FFEFCF1ADF0A2EE018
:102BE000F212BBCF8FB7F8944091960250919702A2
:102BF00060919802709199028FBFB0908A02C09044
:102C00008B02F0908C02D0908D02E0908E02109298
:102C10008B0210928C0210928D0210928E02C110C3
:102C200003C0FF2009F447C0809188029091890277
:102C30000E943B1B9C0190918302992309F47CC163
:102C400025313105C0F19F3F19F09F5F90938302BA
:102C5000CC2061F00E948B1C1C1414F491E001C084
:102C60009FEF899F802D112480938B02FF2061F0BC
:102C70000E948B1C1F1414F09FEF01C091E0899FEC
:102C8000802D112480938C0280918B02882399F0EF
:102C9000A0908C02AA2079F00E94AE1C811101C084
:102CA00081E080938B028A2D0E94AE1C811101C0AD
:102CB00081E080938C02D11003C0EE2009F447C05C
:102CC00080918602909187020E943B1B9C0190910B
:102CD0008402992309F434C125313105C0F19F3FA5
:102CE00019F09F5F90938402DD2061F00E946B1CBD
:102CF0001D1414F491E001C09FEF899F802D1124D1
:102D000080938D02EE2061F00E946B1C1E1414F063
:102D10009FEF01C091E0899F802D112480938E0246
:102D200080918D02882399F0A0908E02AA2079F0DC
:102D30000E94AE1C811101C081E080938D028A2D1A
:102D40000E94AE1C811101C081E080938E028091AF
:102D50008A028B111AC080918B02882311F08C118A
:102D600014C080918C02882311F0F8120EC080915B
:102D70008E02882311F0E81208C090918D029923E9
:102D800031F081E0D91204C002C081E001C080E0CE
:102D900080FD15C080918B0281110FC080918C0243
:102DA00081110BC080918D02811107C081E090914B
:102DB0008E02911103C080E001C081E080FD0E947D
:102DC000441CB0928A02C0928B02F0928C02D09284
:102DD0008D02E0928E020E94261C9091610289175A
:102DE00069F0809361028FB7F894409196025091F8
:102DF000970260919802709199028FBF8091A10112
:102E0000843009F030CE8093E9008091E80082FFA1
:102E10002ACE8091E80085FF24C00E94B10D811167
:102E20001EC080E2E82EF12C6E0181E2C80ED11C9A
:102E300009C08091F100F60181936F01F1E0EF1A72
:102E4000F10869F08091E80085FDF3CF8091E800FA
:102E50008B778093E8000E94B10D882399F391E06D
:102E600001C090E08091E8008B778093E80099237F
:102E700009F4F9CD89A1853009F440C048F48130C6
:102E800001F190F0823009F4EECD843029F138C0A0
:102E9000873091F198F1883089F18E3F89F58983E7
:102EA00093E09A838B8313C019828CE0EEE5F1E006
:102EB000DE01129601900D928A95E1F78EEF8D87D3
:102EC00006C080939F0184E089838EEF8A83CE01C0
:102ED00001960E940E0EC7CD80919F01882309F4B0
:102EE000C2CD8AA1811104C08BA10E947218BBCDF2
:102EF0008BA10E947F18B7CD85E003C084E001C09C
:102F00008FEF0E94331CAFCDE9BCF9BC09B400FEC1
:102F1000FDCF8091D8008F7D8093D8008091E00014
:102F200082608093E0008091E00081FDFCCF1092F0
:102F300071010E94B118A2CD232B09F086CEBBCE21
:102F40002139314008F0CDCE02CFCF92DF92FF92EF
:102F50000F931F93CF93DF936C01009143028091F5
:102F60004202082BC7E0D0E010E0C8010C2E02C0DE
:102F7000959587950A94E2F780FD04C02197A8F7FC
:102F8000F12C09C0FC2EB6018C2F0E94440F0E9428
:102F9000610F019799F38F2DDF91CF911F910F91C1
:102FA000FF90DF90CF900895CF93DF93EC010E94C4
:102FB000A517BE010E94440F0E94610FDF91CF91BF
:102FC0000895292F9E3078F5863068F590E036E038
:102FD000239F800D911D1124682F677023E0969523
:102FE00087952A95E1F7FC01EE0FFF1FE80FF91F07
:102FF000EE59FD4F40E050E080E0219130E0062E98
:1030000002C0369527950A94E2F721703327042EE3
:1030100001C0220F0A94EAF7822B4F5F5F4F4330C3
:10302000510559F7089580E00895292F9E3088F5BD
:10303000863078F590E036E0239F800D911D1124B5
:10304000282F277051E001C0550F2A95EAF723E099
:10305000969587952A95E1F7FC01EE0FFF1FE80F83
:10306000F91FEE59FD4F20E030E070E04081CB01C8
:10307000022E02C0969587950A94E2F78170819599
:1030800084278523842781932F5F3F4F2330310589
:1030900069F70895A0E2B0E0E0E5F8E10C94AF1D17
:1030A0000E948003182F80919F018823A9F02FEFA1
:1030B00080E792E0215080409040E1F700C000009E
:1030C00085E08983812F0E946C038A838EEF8B8336
:1030D000CE0101960E940E0E10934302A096E3E0EB
:1030E0000C94CB1D21E030E001C0220F8A95EAF755
:1030F00020958091430282230E944A18089521E07E
:1031000030E001C0220F8A95EAF780914302822BBA
:103110000E944A180895809342020895FC01248178
:103120002223D9F0808191810E94D41792959F70BB
:10313000963079F010F4925001C09A50923068F4B1
:10314000803F69F018F4883E40F409C0843F29F4B8
:1031500006C0883E20F0813F11F080E0089581E0B4
:10316000089580910601882331F080916E0187FFD8
:1031700002C08EE101C086E0E4EAF1E0DF011D92C9
:103180008A95E9F780E090E00E94011C80E090E0E1
:103190000E94DC1B109225020E948510EAE8F2E0F2
:1031A00085E0DF011D928A95E9F710928302109263
:1031B0008402109285020E94441C0895882321F005
:1031C0000E947E100E9485100895882339F0909106
:1031D0007101892B809371010E94851008956623E7
:1031E00009F45CC08D3C21F40E948B1C819504C0C5
:1031F0008E3C29F40E948B1C80938C02C5C08F3CAE
:1032000021F40E948B1C819504C0803D29F40E940A
:103210008B1C80938B02B8C0893D19F40E946B1CF3
:1032200005C08A3D31F40E946B1C819580938D020C
:10323000ABC08B3D21F40E946B1C819504C08C3D7A
:1032400029F40E946B1C80938E029EC09FE2980F0F
:10325000983078F421E030E0A90102C0440F551FF6
:103260009A95E2F7CA0190918A02892B80938A028B
:103270008BC08D3D21F48091850281600CC08E3D14
:1032800021F480918502826006C08F3D09F07CC0E8
:103290008091850284608093850276C08D3C39F4EC
:1032A00090918C0297FF35C010928C0259C08E3CD1
:1032B00029F490918C021916BCF32BC090918B02CB
:1032C0008F3C29F497FF25C010928B0249C0803DA6
:1032D00019F41916CCF31DC090918D02893D29F483
:1032E0001916BCF410928D023BC08A3D19F497FF69
:1032F00010C0F8CF8B3D39F490918E0297FF09C032
:1033000010928E022DC08C3D21F490918E021916E0
:10331000BCF39FE2980F983080F421E030E0A901DF
:1033200002C0440F551F9A95E2F7CA01809590910B
:103330008A02892380938A0213C08D3D21F48091F3
:1033400085028E7F0BC08E3D21F4809185028D7F9A
:1033500005C08F3D29F4809185028B7F8093850283
:1033600080918B02811106C080918C02811102C074
:103370001092830280918D02811106C080918E028D
:10338000811102C0109284020E94441C0895882377
:1033900009F460C0823869F40E94261C81FF5AC07B
:1033A00069E382EA91E00E94A71B0E94851069E30D
:1033B0000EC0833899F40E94261C80FF4BC063E541
:1033C00082EA91E00E94A71B0E94851063E582EAD1
:1033D00091E00E947F1B0E9485100895843869F453
:1033E0000E94261C82FF36C067E482EA91E00E94B8
:1033F000A71B0E94851067E4EACF9CEF980F913AD3
:1034000010F4682FE4CF90E2980F983050F4877052
:1034100091E001C0990F8A95EAF7892F0E947E10EA
:10342000DACF9BE5980F933028F480E090E00E947B
:10343000011C089598E5980F9B3128F480E090E0F6
:103440000E94DC1B089593E3980F933118F460E019
:103450000E94EF180895CF93882309F4BDC0C82FA8
:103460008238B1F40E94261C81FDB6C069E382EA6D
:1034700091E00E94A71B0E9485102FEF87EE93E03A
:10348000215080409040E1F700C0000069E317C080
:103490008338E1F40E94261C80FD9EC063E582EA29
:1034A00091E00E94A71B0E9485102FEF81EE94E00F
:1034B000215080409040E1F700C0000063E582EABF
:1034C00091E00E947F1B0E94851086C08438B1F471
:1034D0000E94261C82FD80C067E482EA91E00E947F
:1034E000A71B0E9485102FEF81EE94E021508040B1
:1034F0009040E1F700C0000067E4E1CF8CEF8C0F53
:10350000813AB8F5809106018823E1F080916E013F
:1035100087FF18C0EC2FE695E695E695F0E0EE55AE
:10352000FE4F8281282F30E04C2F477081E090E0E1
:1035300002C0880F991F4A95E2F782239323892BB3
:1035400059F411C0E4EAF1E08191C81729F021E0B3
:10355000EA3AF207C9F707C06C2F82EA91E00E94AD
:103560007F1B0E9485106C2F82EA91E00E94A71BAE
:10357000AACF80E28C0F883068F4C77081E090E0B9
:1035800001C0880FCA95EAF790917101892B809349
:10359000710199CFEBE5EC0FE33040F4F0E0EB5D27
:1035A000FE4F808190E00E94011C16C0E8E5EC0F00
:1035B000EB3150F4F0E0EE0FFF1FE85DFE4F80812D
:1035C00091810E94DC1B08C083E38C0F833120F4BF
:1035D00061E08C2F0E94EF18CF91089580917301C4
:1035E00008959B019091A1019430F1F48F70809324
:1035F000E9008FEF9091E800815095FD06C095EDB0
:103600009A95F1F700008111F5CF8091E80085FFD0
:103610000BC0BA01C90140E050E00E94E40D809166
:10362000E8008E778093E800089578941F920F92B7
:103630000FB60F9211248F939F93AF93BF938091F6
:10364000960290919702A0919802B09199020196EA
:10365000A11DB11D8093960290939702A0939802AA
:10366000B0939902BF91AF919F918F910F900FBE30
:103670000F901F9018959C014FB7F8948091960277
:1036800090919702A0919802B09199024FBF821B2E
:10369000930B08952FB7F89480919602909197021A
:1036A000A0919802B09199022FBF08951F920F9296
:1036B0000FB60F9211248F939F93AF93BF93809176
:1036C0009502811113C08091960290919702A0916A
:1036D0009802B09199024196A11DB11D8093960266
:1036E00090939702A0939802B0939902BF91AF91E3
:1036F0009F918F910F900FBE0F901F901895209162
:1037000006012223C9F020916E0127FF15C0262F44
:103710002695269526952E31C8F4FC01E20FF11D61
:10372000677081E090E001C0880F6A95EAF78095A4
:103730009281892382830895FC0106962281621377
:1037400001C012823196E817F907C1F70895209158
:1037500006012223C1F020916E0127FF14C0262FFD
:103760002695269526952E3130F5FC01E20FF11DA8
:10377000677081E090E001C0880F6A95EAF7928156
:10378000892B82830895FC0132962FEF30E041911E
:10379000641789F02F3F19F4411101C0232F3F5FB7
:1037A0003630A9F72F3F39F0FC01E20FF11D27FD5C
:1037B000FA95628308950895A3E0B0E0E2EEFBE19C
:1037C0000C94B01D20919302309194022817390770
:1037D000A1F09093940280939302E0919102F09172
:1037E0009202309751F024E029839B838A830680DC
:1037F000F781E02DCE01019609952396E2E00C9425
:10380000CC1DA3E0B0E0E7E0FCE10C94B01D2091FA
:103810008F023091900228173907A1F090939002FF
:1038200080938F02E0919102F0919202309751F0D3
:1038300023E029839B838A830680F781E02DCE01D4
:10384000019609952396E2E00C94CC1DE09191023B
:10385000F0919202309729F00190F081E02D0995C6
:10386000089580E00895A0E2B0E0E9E3FCE10C9463
:10387000B01D9FEF99838A83CE0101960E940E0EA0
:10388000A096E2E00C94CC1D0E944A1B20918B0272
:10389000211104C020918C02222321F090938902EF
:1038A0008093880220918D02211104C020918E0204
:1038B000222321F09093870280938602E091910267
:1038C000F0919202309731F00480F581E02D8AE882
:1038D00092E0099508958091850280FD18C081FDD0
:1038E00014C082FD16C080918402882381F08C333D
:1038F00080F427E0829FC00111246CE370E00E94F5
:103900002F1E862F672B19F005C083E0089581E0F4
:10391000089587E008958091850280FD17C081FD9C
:1039200017C082FD19C080918302882399F08C33DF
:1039300098F428E3829FC00111246CE370E00E9498
:103940002F1E862F672B49F481E008958EE008959D
:103950008CE1089588E0089588E30895282F35EBD9
:103960002303C001112497FF03C08058910902C0AE
:1039700080589F4F892F08951092B9008CE0809352
:10398000B8000895A0E0B0E0E8ECFCE10C94A71DBD
:10399000B82EEB010E944A1B6C01C431D10558F0CE
:1039A000CF3F8FEFD80759F0CE0164E170E00E945D
:1039B0008C1D7B0107C0EE24E394F12C03C025E0AD
:1039C000E22EF12C84E8A82E94EA992E1092BC00E5
:1039D0009092BC000E944A1B8C018091BC0087FD24
:1039E00007C0C8010E943B1BE816F906B0F729C0C2
:1039F0008091B900887F883041F08091B900887F3C
:103A0000803119F00FEF1FEF1EC0B092BB00A092E3
:103A1000BC000E944A1B8C018091BC0087FD07C03E
:103A2000C8010E943B1BE816F906B0F70AC0809156
:103A3000B900887F883111F0803421F700E010E070
:103A40000EC00EEF1FEFCF3F8FEFD80709F4BECFA8
:103A5000C6010E943B1BC817D90708F0B7CFC801A1
:103A6000CDB7DEB7EBE00C94C31D0F931F93CF933C
:103A7000DF93EB018093BB0084E88093BC000E943D
:103A80004A1B8C018091BC0087FD0DC0CF3F8FEF9A
:103A9000D807C1F3C8010E943B1BC817D90790F78C
:103AA0008EEF9FEF0CC02091B900287F81E090E05D
:103AB000283211F480E090E0919581959109DF9191
:103AC000CF911F910F9108950F931F93CF93DF9381
:103AD000EC0184E88093BC000E944A1B8C01809119
:103AE000BC0087FD0DC0CF3F8FEFD807C1F3C801E1
:103AF0000E943B1BC817D90790F78EEF9FEF03C0BA
:103B00008091BB0090E0DF91CF911F910F910895BC
:103B100084E98093BC000895AA1BBB1B51E107C038
:103B2000AA1FBB1FA617B70710F0A61BB70B881F4D
:103B3000991F5A95A9F780959095BC01CD010895DC
:103B40002F923F924F925F926F927F928F929F92AD
:103B5000AF92BF92CF92DF92EF92FF920F931F939B
:103B6000CF93DF93CDB7DEB7CA1BDB0B0FB6F8944C
:103B7000DEBF0FBECDBF09942A88398848885F848C
:103B80006E847D848C849B84AA84B984C884DF80FD
:103B9000EE80FD800C811B81AA81B981CE0FD11DE1
:103BA0000FB6F894DEBF0FBECDBFED010895F999B1
:103BB000FECF92BD81BDF89A992780B50895A6E100
:103BC000B0E044E050E00C94211EA8E1B0E042E0F7
:103BD00050E00C94211EDC01A40FB51F4150504051
:103BE00048F0CB01840F951F2E910E94FC1D41507F
:103BF0005040D0F70895262FF999FECF92BD81BD90
:103C0000F89A019700B4021639F01FBA20BD0FB61A
:103C1000F894FA9AF99A0FBE08950396272F0E94F6
:103C2000FC1D0E94FB1D252F0E94FC1D242F0C94BF
:103C3000FC1D0196272F0E94FC1D0C94FB1DDC012E
:103C4000CB01FC01F999FECF06C0F2BDE1BDF89AA7
:103C5000319600B40D9241505040B8F7089597FB4B
:103C6000072E16F4009407D077FD09D00E948C1D12
:103C700007FC05D03EF4909581959F4F089570956F
:103C800061957F4F0895EE0FFF1F0590F491E02D91
:103C900009940F931F93CF93DF938230910510F413
:103CA00082E090E0E0919C02F0919D0220E030E003
:103CB000A0E0B0E0309719F1408151810281138179
:103CC00048175907C8F08417950769F4109731F021
:103CD00012960C93129713961C9327C000939C0284
:103CE00010939D0222C02115310519F04217530788
:103CF00018F49A01BD01EF01DF01F801DBCF2115B6
:103D00003105F9F0281B390B2430310580F48A8104
:103D10009B816115710521F0FB019383828304C0AF
:103D200090939D0280939C02FE01329644C0FE0156
:103D3000E20FF31F81939193225031093983288335
:103D40003AC020919A0230919B02232B41F420919A
:103D500002013091030130939B0220939A0220913B
:103D60000001309101012115310541F42DB73EB715
:103D70004091040150910501241B350BE0919A02FA
:103D8000F0919B02E217F307A0F42E1B3F0B2817BC
:103D9000390778F0AC014E5F5F4F2417350748F0C4
:103DA0004E0F5F1F50939B0240939A028193919311
:103DB00002C0E0E0F0E0CF01DF91CF911F910F91C1
:103DC0000895CF93DF93009709F481C0FC013297E7
:103DD00013821282A0919C02B0919D02109781F4EF
:103DE00020813181820F931F20919A0230919B0292
:103DF0002817390751F5F0939B02E0939A0267C0A8
:103E0000ED0120E030E0CE17DF0740F44A815B810E
:103E10009E0141155105F1F0EA01F5CFD383C2832C
:103E200040815181840F951FC817D90759F48881A3
:103E30009981840F951F0296918380838A819B814B
:103E4000938382832115310529F4F0939D02E09339
:103E50009C023DC0E901FB83EA8349915991C40F5B
:103E6000D51FEC17FD0761F480819181840F951FA8
:103E70000296E90199838883828193819B838A8357
:103E8000E0E0F0E012968D919C911397009719F065
:103E9000FD01DC01F7CF8D919C9111979D012E5F63
:103EA0003F4F820F931F20919A0230919B02281757
:103EB000390769F4309729F410929D0210929C0200
:103EC00002C013821282B0939B02A0939A02DF91E8
:103ED000CF910895FB01DC0104C08D910190801900
:103EE00021F441505040C8F7881B990B0895F8946D
:023EF000FFCF02
:103EF20000009E02200001EE1A26091F091809205F
:103F0200004422476DCA01A8016101F40020023970
:103F12000259027202818283E200E900EA00B500DE
:103F2200B600B700CD008301CC008A019201940152
:103F32002102230224022502260227022A02B300BA
:103F4200B4006F0070009F01CB019F02A002786D48
:0A3F520033416F2F4A5A51335A00D1
:00000001FF
