:100000000C9472020C948F020C948F020C948F0249
:100010000C948F020C948F020C948F020C948F021C
:100020000C948F020C948F020C94E70C0C94290C06
:100030000C94511B0C948F020C948F020C948F0221
:100040000C948F020C948F020C948F020C948F02EC
:100050000C948F020C94101B0C948F020C948F0242
:100060000C948F020C948F020C948F020C948F02CC
:100070000C948F020C948F020C948F020C948F02BC
:100080000C948F020C948F020C948F020C948F02AC
:100090000C948F020C948F020C948F020C948F029C
:1000A0000C948F020C948F020C948F028A038F039E
:1000B00099038D03920397039503E604E60419055B
:1000C00019059605B405BA06BA06B9052D063E0609
:1000D0003E060A080D0810081308160819081C081F
:1000E0003C0A630A110C630A110CAF0AD20A110C04
:1000F000C70BD70B52175F1740157B176B17791774
:1001000079177717791705010980A101850319016E
:100110002AB700150126B700950175108100C005AA
:100120000C0901A101850419012AA002150126A0CC
:1001300002950175108100C005010906A10185061F
:10014000050719E029E715002501950875018102C9
:100150000507190029EF1500250195F075018102A9
:100160000508190129059505750191029501750389
:100170009101C005010902A1010901A100050919A8
:10018000012908150025019508750181020501095D
:100190003009311581257F950275088106093815CA
:1001A00081257F950175088106050C0A38021581A5
:1001B000257F950175088106C0C00660FF0961A111
:1001C000010962150026FF00952075088102096368
:1001D000150026FF00952075089102C0050109064B
:1001E000A101050719E029E715002501950875010A
:1001F00081029501750881010507190029FF150085
:1002000026FF0095067508810005081901290515C6
:10021000002501950575019102950175039101C0B5
:1002200009027400040100A0FA090400000103019E
:100230000100092111010001224400070581030882
:10024000000109040100020300000009211101005E
:100250000122220007058303200001070504032073
:10026000000109040200010301020009211101003B
:100270000122470007058203080001090403000169
:1002800003000000092111010001226D000705850E
:100290000320000112010002000000089732744997
:1002A00001000102000116034500720067006F00A3
:1002B00044006F007800200045005A000000280329
:1002C0005A0053004100200054006500630068009C
:1002D0006E006F006C006F006700790020004C001A
:1002E00061006200730000000403090435002B0064
:1002F000E400E100215200001E00140004311D0042
:1003000022524D001F001A0016001B0001004C0075
:100310002000080007000600E30028002100150067
:1003200009001900E2004A00220017000A00050037
:100330000000010029000100000001000000010090
:1003400001000100000031000000010023001C003A
:100350000B00110000000100240018000D00100027
:100360002D004B0025000C000E0036002E002C0046
:10037000260012000F00370001002A00270013009A
:100380003331380022524E0030002F003400E50097
:1003900021520000290001000100010001000000BD
:1003A0003A00010001000100010001003B000100D2
:1003B00050000100010001003C005200510001000A
:1003C000010001003D0001004F000100010001009B
:1003D0003E000100010001000000010001000100D9
:1003E0000000010000000100010001000000010008
:1003F000000001003F003002340030000000010026
:100400004000240021001E002700010041002500BB
:1004100022001F00080001004200260023002000E7
:1004200001000100430025022F001A000100010015
:10043000440045000100010001000000010001002E
:1004400001000100010000000100010001000100A5
:100450000100010001000100CF0001000100BD000A
:100460000100CD00CE0001000100BE00010001002E
:10047000D0000100D10001000100010001000100D5
:100480000000010001000100000001000000010067
:100490000100010000000100000001000100010056
:1004A000010001000000010001000100AC0001009A
:1004B000D20001000100AD00AE0001000100A90062
:1004C00001000100AB0001000100AA0001000100D1
:1004D000010001000100A80001000100010001006D
:1004E0000100000011241FBECFEFDAE0DEBFCDBF58
:1004F00011E0A0E0B1E0E8EEFEE302C005900D924D
:10050000AA36B107D9F722E0AAE6B1E001C01D92F0
:10051000AE39B207E1F70E94FA130C94721F0C94E3
:100520000000A6E0B0E0E7E9F2E00C94AA1D4983E0
:100530005A8349815A81992361F0222351F0CA01DB
:100540000E94A017182F682F89819A810E94101885
:1005500004C0CA010E94DC17182F69817A81812F9B
:100560000E94510F2696E3E00C94C61D1092710173
:100570000E94AC182FEF84E39CE021508040904013
:10058000E1F700C000009AE088E10FB6F894A89562
:10059000809360000FBE90936000FFCFABE1B0E0AE
:1005A000E4EDF2E00C94A91D4E8B5F8B688F798F80
:1005B0008A8F9B8F192F911110922502DE011F96B1
:1005C00087E0FD0111928A95E9F786E0FE017696B3
:1005D00001900D928A95E1F70A8D002341F021E008
:1005E0004F85588969897A89C8010E9491020B8BCD
:1005F0001C8B87E0FE013F96DE01189601900D925C
:100600008A95E1F7CE0108960E94781181112CC0DD
:1006100087E0FE013896DE01119601900D928A95D1
:10062000E1F76C85662301F12091C90130E0C90131
:100630000196877099274091020250E08417950730
:1006400061F16D8397E0929FD001939FB00D1124CB
:10065000A653BE4FFE01319601900D929A95E1F797
:100660008093C9010E94151117E0809102029091B8
:10067000C901891709F1189FC001112486539E4FA3
:100680000E9478118823C1F08091020290E00196C7
:100690008770992780930202E8CF109271010E941F
:1006A000AC181092C90110920202E2ECF1E087E06E
:1006B000DF011D928A95E9F76B96E4E00C94C51D65
:1006C000982F92959F7019F0892F24E001C020E0A7
:1006D000982F9695969511F02E5F892F982F9695C5
:1006E00009F02F5F822F0895CF93C82F0E946003D7
:1006F00056985E9825982D9826982E9827982F988A
:1007000090E0FC013197E730F105A8F4EA5AFF4F79
:100710000C943E1E259A2D9A0EC0259A2D9A269A43
:100720002E9A09C0259A2D9A04C0259A2D9A269AA8
:100730002E9A279A2F9A8C2FCF910895A0E2B0E09D
:10074000E4EAF3E00C94A21DFC018481882309F4FF
:1007500038C37F0121E0408151816281738195819D
:100760000E9491028C0180919F01882399F0F701EA
:100770008581811102C087E001C086E08983F7018D
:1007800080818A8381818B838EEF8C83CE01019659
:100790000E941B0E0115FEE71F07D1F5F7018581A9
:1007A0008823B1F190913E0281E0890F8770987F94
:1007B000853020F4892B80933E0202C090933E0244
:1007C00080913E028770FFEF8F9FC00111249595A5
:1007D00087959595879599279093890080938800B0
:1007E00090938B0080938A0090938D0080938C006F
:1007F00040913E0250913F0260914002709141024F
:100800008FE090E00E94081E809143020E947403D2
:10081000F7018581882309F483C00330FCE71F07B3
:1008200009F45DC048F401158CE71807A9F0013000
:100830001C4709F45AC074C00B35ECE71E0709F4D5
:100840005EC00C35FCE71F0709F451C00A351C4790
:1008500009F066C081E054C0109271010E94AC188A
:100860008FEF94E3ECE081509040E040E1F700C06E
:100870000000F89481E08093E00080E28093D8004B
:100880001092C9008FE19EE40197F1F700C00000CB
:100890001DBA109268001CBC10BE1FBA10927A00DC
:1008A00010926E0010926F00109271001092720000
:1008B0001092C9001092BC0014B817B81AB81DB82D
:1008C00010BA1092BC0015B818B81BB81EB811BAEF
:1008D0000C94003F809103028770A9F472C26FEFFD
:1008E0007FEF80E090E00E94141E0E94B60280918B
:1008F0006F0182FB882780F991E0892701C080E0A1
:100900000E94FE100DC0F7018581882309F459C2A9
:1009100080916F0182FF55C282E00E94E71051C2B0
:10092000F701858100811181882349F0C8010E9467
:10093000A017D82E682FC8010E94101804C0C80143
:100940000E94DC17D82EB8018D2D0E94510F0E94F5
:100950006E0FD82E192FA82EF7010581C680C294DC
:100960009FE0C92280910302877001F10023F1F01A
:10097000812F807F803469F080E28D0D8830B0F067
:10098000812F807E803229F4F1E0FD1578F4CC20AF
:1009900069F080916F0182FF09C082E00E94E71038
:1009A000809103028770BB24B3948111B12C912EE6
:1009B00092948FE09822892D90E08C30910508F078
:1009C000D9C1FC01E35AFF4F0C943E1E812F807F5A
:1009D0001F70882311F01295107F0023B9F01123A6
:1009E00009F4B6C180E28D0D883010F0A11006C068
:1009F00090917101192B1093710105C090912502FE
:100A0000192B109325020E949210A2C18D2D0E94D5
:100A1000C219112309F4AEC180E28D0D883088F12E
:100A2000AA2079F11095909125021923109325029F
:100A30002BC0812F807F1F70803211F01295107FA4
:100A40008D2DAA2029F021E0A21609F44CC055C032
:100A500080916F0182FD1BC0002369F0112339F0E2
:100A600090917101192B109371010E94921080E0F6
:100A70000E94261A7FC180E00E94C219112309F446
:100A800079C1812F0E948B100E94921073C10023A4
:100A900081F0CC20B1F181E0C8126CC190912402A8
:100AA000812F8923181709F465C1192B109324028B
:100AB00061C1C1105FC1812F0E94D91880912402A9
:100AC000912F982329F0912F9095892380932402C8
:100AD00080916D01912F982309F44CC110958123C9
:100AE00080936D0147C1002329F091E09C1508F423
:100AF00041C107C0C1103EC115C0002331F0C11073
:100B000027C1812F0E94E01835C1CC2059F08933CC
:100B100009F02DC1EFEFF7EE23E0E150F040204067
:100B2000E1F723C1812F0E94D91824C1812F869516
:100B30008695837019F0813061F01CC1002321F08B
:100B40008D2D912F937002C080E090E00E94FC1BDD
:100B500017C1002321F08D2D912F937002C080E0EA
:100B600090E00E94D71B0CC1602F8D2D0E94EA18C7
:100B700007C1812F8370A9F5011100C14D2D429548
:100B800046954770440F440F8D2D8F7090E09C0167
:100B9000042E01C0220F0A94EAF7D4FE08C08FE0A9
:100BA00090E001C0880F4A95EAF7809501C080E087
:100BB000169516951370123069F088F490914202E0
:100BC000113019F0822B892302C0922B892B0E94AD
:100BD0008618D4C0822B909142028927F8CF822BAD
:100BE000F6CF002319F0812F817001C086958823EC
:100BF00009F4C4C04D2D429546954770440F440FEB
:100C00008D2D8F7090E09C01042E01C0220F0A945C
:100C1000EAF7D4FE08C08FE090E001C0880F4A9543
:100C2000EAF7809501C080E0169516951370123092
:100C300059F078F490914302113019F0822B8923F6
:100C400009C0922B892B06C0822B909143028927E1
:100C500001C0822B0E94451891C01F70002339F0FB
:100C6000812F0E947A188D2D0E94E01887C08D2D4B
:100C70000E94D918812F0E946D1880C08D2D92EF8F
:100C8000A91671F19A1538F0E0EFAE1659F0F1EFB0
:100C9000AF1609F159C023EFA21649F194EFA91636
:100CA000B1F052C0002371F0C11064C01F7181E027
:100CB00090E0012E01C0880F0A94EAF79091430258
:100CC000892720C0E1E0EC1508F454C0EFCF8091F3
:100CD0006F0182FD1AC0002329F0812F8F7127C078
:100CE0000023D9F3812F8F710E946D1843C0002318
:100CF00041F01F7181E0012E01C0880F0A94EAF7CC
:100D000001C080E00E94451835C0002399F01F7192
:100D1000812F0E947A1880916F0182FF07C0F8E04E
:100D20001F9FC0011124836080930302812F0E94C2
:100D30007A1820C081E00E94E71021E02C15D0F441
:100D400082E00E94E71016C0002321F0CC2029F297
:100D50008D2D8ECECC2031F2893349F48FEF97EE72
:100D6000E3E081509040E040E1F700C000008D2DAD
:100D70000E94C21988EF890D843010F40E94211C52
:100D8000BB20A9F08091030280FD11C0F7011582FC
:100D90008695869586950E947A18C7010E949E03C3
:100DA000809103028695869586950E946D1820E0B5
:100DB000F7014081518162817381848195810E9414
:100DC0009102A096EBE00C94BE1D80E290E090931F
:100DD000100180930F0180916C0181110EC00E945F
:100DE000B71C81E080936C012FEF83ED90E32150DD
:100DF00080409040E1F700C0000060E570E080E4D2
:100E00000E94BD1C9093100180930F01892B09F063
:100E10004EC060E570E080E00E94301D90931001AC
:100E200080930F01892B09F042C060E570E080E0FB
:100E30000E94301D9093100180930F01892BB9F50A
:100E400060E570E08FE30E94301D90931001809365
:100E50000F01892B61F50E94831D60E570E080E43D
:100E60000E94BD1C9093100180930F01892BF9F40F
:100E700060E570E08CE00E94301D9093100180933B
:100E80000F01892BA1F460E570E080E00E94301D25
:100E90009093100180930F01892B49F460E570E075
:100EA0008FE30E94301D9093100180930F010E94E8
:100EB000831D80910F010895CF93DF9356985E981C
:100EC00025982D9826982E9827982F98C8E8D0E036
:100ED0008FEF90E099838883AAE8B0E011969C9305
:100EE0008E93ECE8F0E091838083259A2D9A2FEF82
:100EF00080E792E0215080409040E1F700C0000080
:100F0000269A2E9A2FEF80E792E021508040904061
:100F1000E1F700C00000279A2F9A2FEF80E792E0B8
:100F2000215080409040E1F700C0000025982D98A6
:100F30002FEF80E792E0215080409040E1F700C021
:100F4000000026982E982FEF80E792E021508040F5
:100F50009040E1F700C0000027982F9880913E0252
:100F600087702FEF829FC0011124959587959595E5
:100F7000879599279983888311969C938E93918363
:100F8000808356985E9825982D9826982E982798B5
:100F90002F98DF91CF910895CF93E82F873080F578
:100FA00080910F0190911001892B09F047C0CE2F3D
:100FB00060E570E080E40E94BD1C90931001809376
:100FC0000F01892BD1F460E570E082E10E94301DB1
:100FD0009093100180930F01892B79F481E090E0C8
:100FE00001C0880FCA95EAF760E570E080950E941D
:100FF000301D9093100180930F010E94831D1EC02D
:1010000090E0FC013797E730F105C0F4E759FF4F56
:101010000C943E1E209A289811C0219A29980EC03F
:10102000229A2A980BC0239A2B9808C0529A5A9851
:1010300005C0539A5B9802C03E9A4698CF91089596
:10104000209828982198299822982A9823982B98B4
:1010500052985A9853985B983E9846980895CF9323
:10106000873040F580910F0190911001892B59F53F
:1010700060E570E081E40E94BD1C909310018093B4
:101080000F01892B11F0C0E011C080E590E00E94B3
:101090005F1D97FF05C09093100180930F01F3CF60
:1010A000C82FC0951092100110920F010E94831D4D
:1010B0008C2F0AC09FB18FB1807F869586959370E3
:1010C000892B809501C080E0CF9108958098889AFF
:1010D0008198899A84988C9A85988D9A86988E9A08
:1010E00087988F9A08958091970187FF11C080910A
:1010F000E80082FD05C08091A1018111F8CF11C0E7
:101100008091E8008B770BC08091A101882349F082
:101110008091E80080FFF8CF8091E8008E7780937F
:10112000E8000895982F973068F59093E900981794
:1011300039F07091EC002091ED005091F00003C067
:10114000242F762F50E021FD02C09F5FECCF30911D
:10115000EB003E7F3093EB003091ED003D7F30930C
:10116000ED003091EB0031603093EB007093EC00B8
:101170002093ED005093F0002091EE0027FDE5CF85
:1011800080E008958F708093E90081E008952091B8
:101190009D0130919E012617370748F061157105B2
:1011A00039F42091E8002E772093E80001C0B901BE
:1011B000FC0120E06115710579F18091A10188237E
:1011C000F1F18530F1F18091E80083FD3CC0809120
:1011D000E80082FD2EC08091E80080FFEBCF2091D7
:1011E000F3008091F20090E0922B6115710551F0AF
:1011F0008830910538F421912093F10061507109F4
:101200000196F3CF21E0089709F020E08091E800F3
:101210008E778093E800CECF2111CFCF0AC0809186
:10122000A101882361F0853061F08091E80083FDA1
:101230000AC08091E80082FFF2CF80E0089582E04A
:10124000089583E0089581E0089543E050E0BC01F3
:1012500085E00E94EC1A089545E050E0BC0182E070
:101260000E94EC1A0895CF93DF93EC018091060160
:10127000811105C048E050E0BE0181E00BC08091C3
:101280006E0187FF03C040E285E002C048E081E0D4
:1012900050E0BE010E94EC1A80E2FE01A4E7B1E03A
:1012A00001900D928A95E1F7DF91CF910895AAE21E
:1012B000B0E0EDE5F9E00C94AA1DE7E9F1E08FE973
:1012C00091E02091F10021938E179F07D1F7809133
:1012D0009801833009F463C030F4813071F08230BA
:1012E00009F49FC0B6C08A3009F48BC08B3009F472
:1012F0006EC0893009F0ADC020C080919701813A5D
:1013000009F0A7C08091E800877F8093E800809172
:101310009B0190919C01892B21F460E284E791E08C
:1013200003C060E080E090E070E00E94C708809118
:10133000E8008B778093E8008CC080919701813220
:1013400009F087C080919B0190919C01009719F052
:10135000039709F07EC08091E800877F8093E800C2
:101360008091E80082FD05C08091A1018111F8CF34
:1013700070C02091F3008091F20090E0922B0297D0
:1013800031F48091F100813011F0863021F48091A8
:10139000F100809373018091E8008B7756C08091B3
:1013A0009701813A09F055C080919B0190919C0171
:1013B000892B09F04EC08091E800877F8093E80078
:1013C0008091E80080FFFCCF8091060139C08091B8
:1013D00097018132F1F580919B0190919C01892BBD
:1013E000C1F58091E800877F8093E8000E94730830
:1013F0008091990180930601109271010E94AC18AE
:1014000028C080919701813221F58091E800877F83
:101410008093E8000E94730880919A018093720182
:1014200018C080919701813AA1F48091E800877FEC
:101430008093E8008091E80080FFFCCF80917201EA
:101440008093F1008091E8008E778093E8000E94FD
:1014500073088091E80083FFE4C180919701909127
:101460009801492F50E04A30510508F0DAC1FA01DD
:10147000E059FF4F0C943E1E803821F0823809F06D
:10148000D0C108C08091940190919501992389F071
:1014900082600FC080919B018F70873008F0C1C1BE
:1014A0008093E9008091EB0085FB882780F91092FA
:1014B000E9009091E800977F9093E8008093F10015
:1014C0001092F10070C1282F2D7F09F0AAC1882346
:1014D00019F0823061F0A5C180919901813009F045
:1014E000A0C1933009F080E0809395012EC08091D7
:1014F000990181112AC080919B018F702FEF280FD5
:10150000263008F08EC18093E9002091EB0020FF87
:101510001CC0933021F48091EB00806214C0909144
:10152000EB0090619093EB0021E030E0A90102C054
:10153000440F551F8A95E2F74093EA001092EA00A3
:101540008091EB0088608093EB001092E90080911D
:10155000E800877F8093E8000E94730862C18111D0
:1015600060C1109199011F778091E3008078812BF1
:101570008093E3008091E800877F8093E8000E94D9
:1015800073088091E80080FFFCCF8091E3008068C1
:101590008093E300111102C082E001C083E08093D8
:1015A000A1013FC18058823008F03BC120919901D0
:1015B00030919A012C3D53E0350779F583E08A8319
:1015C0008AE289834FB7F894DE01139620E03EE06B
:1015D00051E2E32FF0E050935700E49120FF03C065
:1015E000E295EF703F5FEF708E2F90E0EA3010F0E1
:1015F000C79601C0C0968D939D932F5F243149F704
:101600004FBF8091E800877F8093E8006AE270E036
:10161000CE0101960E94C708B4C080919B019091B1
:101620009C01432F552743305105A9F068F4413000
:10163000510509F405C14230510509F0F2C084E7B3
:1016400090E0E0E2F2E04BC04132510529F1423234
:10165000510589F1E6C0C901992781309105A1F0B2
:1016600058F0029709F0DDC0E6EAF2E0E4918E2F2F
:1016700090E0E6EAF2E030C0E8EEF2E0E4918E2F8E
:1016800090E0E8EEF2E028C0EEEBF2E0E4918E2F7D
:1016900090E0EEEBF2E020C08430910508F0C1C08C
:1016A000880F991FFC01E35EFE4F0190F081E02D51
:1016B00089E090E014C08430910508F0B2C0FC01CC
:1016C000EE0FFF1FEB5EFE4F0190F081E02DDC017D
:1016D000AF5EBE4F8C9190E0009709F4A2C02091BC
:1016E000E800277F2093E80020919D0130919E0122
:1016F0002817390708F4C90140E0009789F12091C3
:10170000A101222309F43DC02530D9F12091E80040
:1017100023FD37C02091E80022FD2FC02091E80072
:1017200020FFEBCF4091F3002091F20030E0342B0A
:10173000009759F02830310540F444914093F1006E
:10174000319601972F5F3F4FF3CF41E028303105AD
:1017500009F040E02091E8002E772093E800CDCFFB
:101760004111CDCF0AC08091A101882351F085306D
:1017700041F08091E80083FD04C08091E80082FF81
:10178000F2CF8091E8008B778093E8004AC08038E0
:1017900009F047C08091E800877F8093E80080913E
:1017A00096018093F1008091E8008E77D3CE81116D
:1017B00038C08091990190919A01992702978CF5F0
:1017C0008091E800877F8093E80010919901109341
:1017D00096010E947308111106C08091E30087FDF5
:1017E00002C081E001C084E08093A10142E061EC8D
:1017F00081E00E94920842E061EC82E00E9492083F
:1018000042E261EC85E00E94920842E261EC83E0F2
:101810000E94920842E260EC84E00E94920880916B
:10182000A1018091E80083FF10C08091E800877FCC
:101830008093E8008091EB0080628093EB0005C00C
:1018400082E190E0E4E9F2E04ACFAA96E3E00C946A
:10185000C61D1F920F920FB60F9211242F933F9324
:101860004F935F936F937F938F939F93AF93BF93A8
:10187000CF93DF93EF93FF93C091E900CF708091F6
:10188000EC00D82FD17080FDD0E81092E900809153
:10189000F000877F8093F00078940E94570910929F
:1018A000E9008091F00088608093F000CD2BCF702C
:1018B000C093E900FF91EF91DF91CF91BF91AF917C
:1018C0009F918F917F916F915F914F913F912F9158
:1018D0000F900FBE0F901F901895E8EDF0E08081FB
:1018E0008E7F80831092E2001092DA001092E10065
:1018F000A0EEB0E08C9181608C9380818F778083A3
:1019000019BCA7EDB0E08C918E7F8C9380818F7E87
:101910008083109270010895A0E0B0E0E2E9FCE05D
:101920000C94A51DC8EDD0E088818F7E8883E7EDFB
:10193000F0E080818160808384E082BF81E08093D9
:10194000700188818E7F888302EE10E0F80110829A
:101950001092DA0081EEC82ED12CF6011082888117
:101960008F77888388818068888388818F7D88834A
:1019700019BC1092A101109296011092950110923B
:10198000940190EEE92EF12CF70180818B7F80830A
:1019900088818160888342E060E080E00E94920854
:1019A000F60180818E7F8083F80180818160808351
:1019B000808188608083F70180818E7F8083888129
:1019C00080618883CDB7DEB7E8E00C94C11D1F921B
:1019D0000F920FB60F9211242F933F934F935F9363
:1019E0006F937F938F939F93AF93BF93EF93FF93E7
:1019F0008091E10082FF09C08091E20082FF05C072
:101A00008091E1008B7F8093E1008091DA0080FF7C
:101A10002AC08091D80080FF26C08091DA008E7F96
:101A20008093DA008091D90080FF18C080E189BDE1
:101A300082E189BD09B400FEFDCF81E08093A10160
:101A40008091700181110FC00E946D0C0E948C0C5E
:101A50008091E20084608093E20005C019BC10927E
:101A6000A101109270018091E10080FF17C0809168
:101A7000E20080FF13C08091E2008E7F8093E2003D
:101A80008091E20080618093E2008091D8008062C2
:101A90008093D80019BC85E08093A1018091E1007A
:101AA00084FF30C08091E20084FF2CC080E189BDBA
:101AB00082E189BD09B400FEFDCF8091D8008F7D01
:101AC0008093D8008091E1008F7E8093E100809127
:101AD000E2008F7E8093E2008091E200816080933B
:101AE000E20080919601882311F084E007C0809184
:101AF000E30087FD02C081E001C083E08093A10183
:101B00008091A1018091E10083FF27C08091E200D4
:101B100083FF23C08091E100877F8093E10082E012
:101B20008093A101109296018091E1008E7F8093B5
:101B3000E1008091E2008E7F8093E2008091E200DC
:101B400080618093E20042E060E080E00E949208C1
:101B50008091F00088608093F000FF91EF91BF9139
:101B6000AF919F918F917F916F915F914F913F9135
:101B70002F910F900FBE0F901F9018952091E400A9
:101B80003091E50095E64091EC00842F817040FF94
:101B900023C08091E80080FD1DC08091A1018823B1
:101BA00099F0853099F08091EB0085FD11C040914E
:101BB000E4005091E5002417350729F3915011F006
:101BC0009A01E1CF84E0089582E0089583E00895CA
:101BD00081E0089580E008954091E80042FFDDCF64
:101BE0000895EF92FF920F931F93CF93DF937C01A1
:101BF0008B010E94BE0D811119C0E701011511056D
:101C0000A1F08091E80085FD0AC08091E8008E7700
:101C10008093E8000E94BE0D882381F307C089915C
:101C20008093F10001501109E9CF80E0CDB7DEB714
:101C3000E6E00C94C31DCF932091A101243011F54F
:101C4000C091E900CF703091EC00232F217030FD5E
:101C500020E8C22B23E02093E9002091E80020FF38
:101C60000EC040E050E060E270E00E94F10D811192
:101C700010929F018091E8008E778093E800CF70EA
:101C8000C093E900CF91089580E0089590916E018E
:101C900092FF10C041E0282F2471243009F040E069
:101CA00031E0282F2871283009F030E0431711F077
:101CB0002CE0822793FF10C041E0282F24712431AB
:101CC00009F040E031E0282F2871283109F030E098
:101CD000431711F02CE0822730916F0130FF10C0C4
:101CE00051E0282F2171213009F050E041E0282FE8
:101CF0002871283009F040E0541711F029E08227BC
:101D000031FF10C041E0282F2171213109F040E05E
:101D100031E0282F2871283109F030E0431711F005
:101D200029E0822794FD877E08958238910569F124
:101D3000B0F48133910509F475C048F489329105F6
:101D400009F467C08A32910509F471C0089585339A
:101D5000910509F459C089339105B9F00895833E7E
:101D6000910589F138F4803E9105D1F0823E9105CC
:101D700029F10895863E9105C9F1873E9105D9F173
:101D8000843E910509F06CC027C020916E0120FDB2
:101D900057C021FD55C020916F0123FD5BC0089500
:101DA00080916E0180FD48C080916F0180FF48C026
:101DB00080916E0184FD46C083EE51C080916E011A
:101DC00082FF3CC0F5CF80916E0182FD37C08091CB
:101DD0006F0180FD35C0ECCF80916F0181FF36C06F
:101DE00080916E0184FD2EC087EE39C080916E0116
:101DF00083FF2AC0F5CF80916E0183FD25C08091BD
:101E00006F0181FD23C0ECCF80916E0185FD22C062
:101E10001FC080916E0185FD1BC080916F0183FF03
:101E200019C00AC080916E0186FD16C017C080914E
:101E30006E0186FD13C010C089E311C082EE0FC091
:101E400080EE0DC080E00BC086EE09C084EE07C0B6
:101E500085E305C089E203C08AE201C081E390E026
:101E60000895209102029091C90157E02917A9F025
:101E700030E0529FF001539FF00D1124E653FE4FC6
:101E80007181761306C07081781303C07581741355
:101E900006C02F5F3F4F2770E9CF80E0089581E0B3
:101EA00008957E30B0F46630A0F48330A0F494E559
:101EB000899FF001112486E0789FE00DF11D112427
:101EC000E60FF11DEE0FFF1FE451FD4F8591949138
:101ED000089580E001C081E090E008951F93CF93C2
:101EE000DF930E94950EEC01C11580E5D807E8F557
:101EF000C11590E4D90708F0A8C0C03ED10530F55F
:101F0000CD3CD10508F094C0C83AD10578F4C53A63
:101F1000D10508F083C0C130D10509F47CC008F4B4
:101F2000F2C0C430D10508F0F1C0EDC0C33CD1050A
:101F300008F0E9C0C85AD0E0CC0FDD1FC85DDE4F05
:101F40000990D881C02DCE019464E1C0C11580E212
:101F5000D80708F0CBC0C11591E0D90708F06BC0D5
:101F6000C83ED10508F4D2C0CEC0C03682E5D8073D
:101F700028F5C03492E5D90708F079C0C03282E56F
:101F8000D80708F06CC0C11592E5D90708F481C0E4
:101F90004C2F4695469580E2489FA0011124C370BE
:101FA00021E030E0C90102C0880F991FCA95E2F70D
:101FB000EA01C82BD92BCE019D68A9C0C03A82E5A1
:101FC000D807B8F48C2F8F71C03892E5D90708F084
:101FD0007BC08695869590E2899F90011124C370FD
:101FE00081E090E002C0880F991FCA95E2F79A68D5
:101FF00068C0C03C82E5D80708F46DC0C03E92E5D9
:10200000D90708F080C0CF71DD27DC2FCC27CE01A7
:10201000806F906A7CC081E090E079C0C55AD0E0C2
:10202000CB5DDE4F8881C82FD0E0CE0190646FC0B9
:10203000CE0190656CC08D2F0E94460E182FCE01E8
:1020400099270E94950E1F715CC0CE0199270E94AE
:10205000950ECC27DF70D06A8C2B9D2B58C0CF718A
:10206000D0E0DC2FCC27CE01816F906A50C08C2F3E
:102070008F718695869590E2899F90011124C37097
:1020800081E090E002C0880F991FCA95E2F79C6832
:1020900018C08C2F8F710E94460E95E0D695C7957B
:1020A0009A95E1F7CF70D0E0DC2FCC27282F30E0D5
:1020B00084FF05C084E0220F331F8A95E1F7D069C1
:1020C000CE01822B932B23C090E0D82FCC27CE01BA
:1020D000846F906A1CC08C2F8F710E94460E8F7186
:1020E00090E0D82FCC27CE01906211C08D2F8F7138
:1020F0000E94460E182FCE0199270E94950E1F713F
:102100009062912B04C080E090E001C0CE01DF918D
:10211000CF911F91089580959091710189238093AB
:10212000710108959091710180912502982B9093EF
:10213000A201809124028823D9F0892B8093A201E7
:1021400080910601882331F080916E0187FF02C0E3
:102150008EE101C086E0E4EAF1E090E0815028F0F1
:1021600021912223D9F39F5FF9CF9111109224027C
:1021700040E250E064E072E082EA91E00E94651F74
:10218000892B21F180E2E2EAF1E0A4E0B2E00190E3
:102190000D928A95E1F7E0919102F09192023097C9
:1021A000A9F080910601882359F080916E0187FF84
:1021B00007C08091A2018093A30186E08093A201D1
:1021C0000280F381E02D82EA91E0099508959091D3
:1021D00003028095892380930302282F277069F4D6
:1021E000981759F090916F0192FF07C086958695D8
:1021F00086950E946D1810920302089590916F01C8
:1022000092FB222720F9281779F080FB92F990930E
:102210006F0160916E0170916F0184E090E00E9407
:10222000141E82E00E94E7100895809102029091AE
:10223000C901891719F08F5F8770FBCF0895CF937D
:10224000DF938091C80182958F7009F04EC0809114
:10225000C701882309F449C0809102024091C90155
:102260005091C3016091C201C091C401D091C501D8
:1022700077E08417D1F190E0789FF001799FF00D1D
:102280001124DF01A653BE4F14962C9114972223DC
:1022900049F111962C911197251324C02C912613E6
:1022A00021C015962C91159721111CC012962D91C5
:1022B0003C9113972C1B3D0B283C310598F48091E1
:1022C000C8018F7080618093C801E053FE4F808108
:1022D0008F708061808382EC91E00E949E030E9457
:1022E000151103C001968770C4CFDF91CF91089577
:1022F000A4E1B0E0EEE7F1E10C94A11D8C0186E0D1
:10230000F801DE011F9601900D928A95E1F7F80120
:102310008481E58092EC892E91E0992E9091C601FE
:10232000911120C0882309F463C1EE2009F442C052
:10233000C8010E948918F82E8823E1F187E0F8018E
:10234000D40101900D928A95E1F78091C601813008
:1023500031F48091C2019091C3010E94CF170E9475
:102360001F1148C1F801D080C180A280B380F090D5
:10237000C7012091C4013091C501FF2009F4E7C0D5
:10238000A501421B530B483C510508F09DC0882312
:1023900009F430C18091C801282F207F9091C3019A
:1023A000222361F09C1509F460C0C8010E948918BD
:1023B000811163C0C8010E949E031AC19C1113C001
:1023C0009091C2019D110FC0E1100DC08F7080610E
:1023D0008093C80182EC91E00E949E038091C80125
:1023E000F801868303C1E1103AC040E06C2D8D2DC9
:1023F0000E94310F40E06C2D8D2D0E94310FE82E90
:102400008111F4C0DF86C88A8F8598890E94CF1712
:10241000292F22952F70243020F49F70223028F02D
:1024200009C02A50223080F014C0992349F081114C
:1024300007C013C0992321F0F8019681907F69F0BD
:10244000805E883030F409C0803F38F0815F83308F
:1024500020F0C8010E949E03EF2CFE2CCBC080917F
:10246000C80181608093C801C1C09091C2019D11D3
:102470009CCFE1109ACFF80198C0EE2009F49ACFD2
:102480002091C801822F82958F7090E002978CF086
:102490008091C2019091C30199878887BB86AA86E3
:1024A0008091C6018C871D862E87CE0108960E94DA
:1024B0009E0387E0F801A2ECB1E001900D928A95AD
:1024C000E1F70E941F1194C09091C801292F207F2D
:1024D00051F482EC91E00E949E0387E0F401119296
:1024E0008A95E9F783C0882309F484C08091C301E9
:1024F0008C110CC08091C2018D1108C0E11006C082
:10250000F8019683C8010E949E036AC0C8010E9418
:102510008918882309F44ECFEE2009F44BCF20917F
:10252000C801822F82958F7090E0029714F28091FB
:10253000C2019091C3019A838983BC82AB8280914E
:10254000C6018D831E822F83CE010196B0CFA21AC1
:10255000B30AF8ECAF16B10408F042C0882309F4BE
:1025600047C0FE2CEE2009F425CF8091C3018C11C9
:1025700029C08091C2018D1125C09091C80190FDA4
:1025800018C0892F82958F70282F30E021153105D2
:1025900081F0F80196832F30310541F08F5F982F3D
:1025A0009295907F86818F70892B8683C8010E94C7
:1025B0009E0387E0F801A2ECB1E001900D928A95AC
:1025C000E1F718C0C8010E948918811172CF80916B
:1025D000C80181608093C801C8010E949E030AC09F
:1025E00087E0F40111928A95E9F704C0F12C02C04A
:1025F000FF24F3948F2D6496ECE00C94BD1DA0E0B5
:10260000B0E0E5E0F3E10C94A51D80910F019091FD
:102610001001892B91F0809128028F5F809328020E
:1026200081110BC00E94E50690E090931001809309
:102630000F01892B11F40E945C0700E312E078017E
:10264000D0E0C0E087E0C82ECC0E8C2F0E94CC07D3
:102650008C2D0E94CC078C2F0E942F088F73F701BE
:102660009081891721F08083DD24D39401C0D12C7F
:102670008C2D0E942F088F73F7019781891719F00D
:10268000878381E001C080E0D82ADD290E942008EC
:10269000CF5FFFEFEF1AFF0AC730A1F610922D02AD
:1026A000C0912C02CC2309F47DC00E94451B2091CF
:1026B0002A0230912B02AC01421B530B9A019093DA
:1026C0002B0280932A024F3F510509F018F4452B45
:1026D00019F102C02FEF30E010922C021092290263
:1026E000E0912E02F0912F02AF01425F5F4F90E028
:1026F00030E08081882341F0281718F010829C2F49
:1027000003C0821B80833C2F3196E417F50789F7BD
:1027100030932C0290932902DD23B1F1109229020B
:10272000E0912E02F0912F0280912D0290912C02C7
:10273000A4E4B2E0AF01425F5F4F6EE1E80128819F
:102740003C91321779F0308131110CC060832C93A9
:1027500098819227282F30E0292B81E0232B09F440
:1027600080E091E0319611960F5F1F4FE417F50757
:1027700029F780932D0290932C0280912D02CDB7E2
:10278000DEB7E8E00C94C11D81E090912902992305
:10279000A1F38111C3CF0E94451B90932B0280931C
:1027A0002A02BCCFD111F7CF80E0EFCFA6E0B0E096
:1027B000ECEDF3E10C94A91D0E94451B8C01809166
:1027C0002602909127020817190781F019821A82B0
:1027D0000E94451B682F49815A81792F80E090E043
:1027E0000E94CE0210932702009326022696E4E070
:1027F0000C94C51DA6E4B0E0E0E0F4E10C949F1D4C
:1028000085B7806885BF85B7806885BF84B7877FB7
:1028100084BF0FB6F894A89580916000886180937A
:102820006000109260000FBE90E080E80FB6F89450
:1028300080936100909361000FBE84E49EE09093CA
:102840006B0180936A010E946D0C0E948C0C809138
:10285000E20084608093E20078948091A101882353
:10286000A1F01091E9001F709091EC00892F817008
:1028700090FD80E8182B1092E9008091E80083FD1C
:102880000E9457091F701093E90082E084BD93E015
:1028900095BD9AEF97BD80936E000E94E50690E08B
:1028A0009093100180930F010E9420080E946608F7
:1028B000E0E3F2E0A4E4B2E011921D9222E0EE33F4
:1028C000F207D1F78EE090E00E94441E80932E0222
:1028D00090932F02FC010E9611928E179F07E1F73D
:1028E00089EA8093800089E08093810024982C9865
:1028F0003F988AB18F7C8AB96E98479A8BB1806372
:102900008BB9769A8FE090E00E94DA1D60933E02C8
:1029100070933F02809340029093410267708FEF63
:10292000689FB00111247595679575956795772710
:10293000709389006093880070938B0060938A0085
:1029400070938D0060938C000E945C0780E090E0A3
:102950000E94E01D863E9E4F09F472C066EE7EEF37
:1029600080E090E00E94141E60E082E090E00E940F
:10297000F61D60E083E090E00E94F61D1092420296
:1029800060E074E184E090E00E94141E60E086E064
:1029900090E00E94F61D6FEF87E090E00E94F61D28
:1029A00040E050E0BA0188E090E00E94081E60E03C
:1029B00084E290E00E94F61D60E087E190E00E94D2
:1029C000F61D60E08CE090E00E94F61D60E08DE076
:1029D00090E00E94F61D19821A821B821C821D82C1
:1029E0001E821F82188648E050E068E170E0CE0148
:1029F00001960E94E61D40E050E0BA0180E290E0BE
:102A00000E94081E10923E0210923F021092400255
:102A10001092410284E080933E0240913E02509128
:102A20003F0260914002709141028FE090E00E946D
:102A3000081E40E050E0BA0183E190E00E94081EC9
:102A400082E090E00E94D21D8093520284E090E0E8
:102A50000E94E01D90936F0180936E0183E090E0EF
:102A60000E94D21D0E948618809143020E94740326
:102A700087E091E0909392028093910208E110E048
:102A80008091A101853009F058C030E4D32E40E197
:102A9000E42E52E1F52E8091A101853009F047C066
:102AA0008091A101843009F1109295020FB6F8943B
:102AB000A895009360000FBED092600083B7817F1D
:102AC000846083BF83B7816083BF7894889583B720
:102AD0008E7F83BF0FB6F894A895809160008861BF
:102AE00080936000109260000FBE80919501882352
:102AF00091F20E94E50690E09093100180930F01FF
:102B00000E9420080E946608E4E4F2E0119222E0AC
:102B1000E235F207D9F70E94FF12E4E4F2E0819176
:102B20008111EDC182E0E235F807C9F7B4CF109208
:102B300071010E94AC180E94211C0E94FF1223E523
:102B4000C22E22E0D22EA4E4B2E0F60191918D9142
:102B5000892792E0E136F90719F08823B9F305C017
:102B6000811103C00E94D61355C094E4892E92E0CF
:102B7000992EF12CF40171904F01F601A080A72449
:102B8000B9F1E12CBB24B394662463948A2D8B2184
:102B900041F12296EFAE22972396FFAE23970E9433
:102BA000451B25969FAF8EAF259726966FAE26972D
:102BB00091E0872D8B2109F490E027969FAF27970E
:102BC00022964FAD229723965FAD239724966FAD43
:102BD000249725967FAD259726968FAD26970E9440
:102BE000CE02E394BB0CF6E0EF12D0CFF601708278
:102BF000F394FFEFCF1ADF0A2EE0F212BBCF8FB7AC
:102C0000F8944091960250919702609198027091C9
:102C100099028FBFB0908A02C0908B02F0908C0214
:102C2000D0908D02E0908E0210928B0210928C0256
:102C300010928D0210928E02C11003C0FF2009F481
:102C400047C080918802909189020E94361B9C01A6
:102C500090918302992309F46AC125313105C0F1AD
:102C60009F3F19F09F5F90938302CC2061F00E94F8
:102C7000861C1C1414F491E001C09FEF899F802DE5
:102C8000112480938B02FF2061F00E94861C1F1488
:102C900014F09FEF01C091E0899F802D1124809353
:102CA0008C0280918B02882399F0A0908C02AA203C
:102CB00079F00E94A91C811101C081E080938B02F0
:102CC0008A2D0E94A91C811101C081E080938C0291
:102CD000D11003C0EE2009F447C080918602909184
:102CE00087020E94361B9C0190918402992309F46B
:102CF00022C125313105C0F19F3F19F09F5F9093AC
:102D00008402DD2061F00E94661C1D1414F491E021
:102D100001C09FEF899F802D112480938D02EE20AA
:102D200061F00E94661C1E1414F09FEF01C091E038
:102D3000899F802D112480938E0280918D0288239B
:102D400099F0A0908E02AA2079F00E94A91C81110E
:102D500001C081E080938D028A2D0E94A91C8111FF
:102D600001C081E080938E0280918A028B111AC08B
:102D700080918B02882311F08C1114C080918C02F9
:102D8000882311F0F8120EC080918E02882311F072
:102D9000E81208C090918D02992331F081E0D91298
:102DA00004C002C081E001C080E080FD15C08091B8
:102DB0008B0281110FC080918C0281110BC0809118
:102DC0008D02811107C081E090918E02911103C0A4
:102DD00080E001C081E080FD0E943F1CB0928A0229
:102DE000C0928B02F0928C02D0928D02E0928E0201
:102DF0000E94211C90916102891769F08093610201
:102E00008FB7F89440919602509197026091980282
:102E1000709199028FBF8091A101843009F030CE6A
:102E20008093E9008091E80082FF2ACE8091E8003B
:102E300085FF24C00E94BE0D81111EC080E2E82ED5
:102E4000F12C6E0181E2C80ED11C09C08091F10005
:102E5000F60181936F01F1E0EF1AF10869F08091BA
:102E6000E80085FDF3CF8091E8008B778093E80040
:102E70000E94BE0D882399F391E001C090E08091FB
:102E8000E8008B778093E800992309F4F9CDE9A154
:102E90008E2F90E08930910570F5FC01E658FF4FC8
:102EA0000C943E1E19828CE0EEE5F1E0DE011296F4
:102EB00001900D928A95E1F78EEF8D8707C081E032
:102EC00080939F0184E089838EEF8A83CE010196EF
:102ED0000E941B0ED5CD80919F01882309F4D0CD8F
:102EE00080E00E9445188AA10E947A18C9CD85E029
:102EF00003C084E001C08FEF0E942E1CC1CDE9BC4D
:102F0000F9BC09B400FEFDCF8091D8008F7D80937D
:102F1000D8008091E00082608093E0008091E00022
:102F200081FDFCCF109271010E94AC18B4CD232B0F
:102F300009F098CECDCE2139314008F0DFCE14CF44
:102F4000CF92DF92FF920F931F93CF93DF936C0189
:102F50000091430280914202082BC7E0D0E010E0CC
:102F6000C8010C2E02C0959587950A94E2F780FD62
:102F700004C02197A8F7F12C09C0FC2EB6018C2FB4
:102F80000E94510F0E946E0F019799F38F2DDF91D0
:102F9000CF911F910F91FF90DF90CF900895CF9325
:102FA000DF93EC010E94A017BE010E94510F0E9406
:102FB0006E0FDF91CF910895292F9E3078F58630DE
:102FC00068F590E036E0239F800D911D1124682F55
:102FD000677023E0969587952A95E1F7FC01EE0F3F
:102FE000FF1FE80FF91FEE59FD4F40E050E080E071
:102FF000219130E0062E02C0369527950A94E2F71B
:1030000021703327042E01C0220F0A94EAF7822B85
:103010004F5F5F4F4330510559F7089580E00895A1
:10302000292F9E3088F5863078F590E036E0239F92
:10303000800D911D1124282F277051E001C0550FDC
:103040002A95EAF723E0969587952A95E1F7FC0102
:10305000EE0FFF1FE80FF91FEE59FD4F20E030E0A3
:1030600070E04081CB01022E02C0969587950A94AC
:10307000E2F78170819584278523842781932F5FD0
:103080003F4F2330310569F70895A0E2B0E0EBE44B
:10309000F8E10C94AA1D0E947403182F80919F01DF
:1030A0008823A9F02FEF80E792E0215080409040E4
:1030B000E1F700C0000085E08983812F0E94600352
:1030C0008A838EEF8B83CE0101960E941B0E109394
:1030D0004302A096E3E00C94C61D21E030E001C05D
:1030E000220F8A95EAF720958091430282230E945D
:1030F0004518089521E030E001C0220F8A95EAF7D3
:1031000080914302822B0E944518089580934202C9
:103110000895FC0124812223D9F0808191810E94AD
:10312000CF1792959F70963079F010F4925001C0AD
:103130009A50923068F4803F69F018F4883E40F469
:1031400009C0843F29F406C0883E20F0813F11F079
:1031500080E0089581E0089580910601882331F090
:1031600080916E0187FF02C08EE101C086E0E4EA33
:10317000F1E0DF011D928A95E9F780E090E00E947E
:10318000FC1B80E090E00E94D71B109225020E9459
:103190009210EAE8F2E085E0DF011D928A95E9F7F6
:1031A0001092830210928402109285020E943F1CAA
:1031B0000895882321F00E948B100E949210089598
:1031C000882339F090917101892B809371010E94BD
:1031D00092100895662309F45CC08D3C21F40E948E
:1031E000861C819504C08E3C29F40E94861C809325
:1031F0008C02C5C08F3C21F40E94861C819504C0BE
:10320000803D29F40E94861C80938B02B8C0893DC2
:1032100019F40E94661C05C08A3D31F40E94661CA8
:10322000819580938D02ABC08B3D21F40E94661C7A
:10323000819504C08C3D29F40E94661C80938E0207
:103240009EC09FE2980F983078F421E030E0A90109
:1032500002C0440F551F9A95E2F7CA0190918A0265
:10326000892B80938A028BC08D3D21F48091850249
:1032700081600CC08E3D21F480918502826006C081
:103280008F3D09F07CC08091850284608093850227
:1032900076C08D3C39F490918C0297FF35C0109226
:1032A0008C0259C08E3C29F490918C021916BCF303
:1032B0002BC090918B028F3C29F497FF25C0109270
:1032C0008B0249C0803D19F41916CCF31DC09091B2
:1032D0008D02893D29F41916BCF410928D023BC071
:1032E0008A3D19F497FF10C0F8CF8B3D39F49091C7
:1032F0008E0297FF09C010928E022DC08C3D21F4E2
:1033000090918E021916BCF39FE2980F983080F4CA
:1033100021E030E0A90102C0440F551F9A95E2F761
:10332000CA01809590918A02892380938A0213C0F2
:103330008D3D21F4809185028E7F0BC08E3D21F45E
:10334000809185028D7F05C08F3D29F48091850293
:103350008B7F8093850280918B02811106C08091C2
:103360008C02811102C01092830280918D02811122
:1033700006C080918E02811102C0109284020E94C8
:103380003F1C0895882309F460C0823869F40E94C4
:10339000211C81FF5AC069E382EA91E00E94A21BCE
:1033A0000E94921069E30EC0833899F40E94211C98
:1033B00080FF4BC063E582EA91E00E94A21B0E945D
:1033C000921063E582EA91E00E947A1B0E949210BB
:1033D0000895843869F40E94211C82FF36C067E496
:1033E00082EA91E00E94A21B0E94921067E4EACF59
:1033F0009CEF980F913A10F4682FE4CF90E2980F69
:10340000983050F4877091E001C0990F8A95EAF7DF
:10341000892F0E948B10DACF9BE5980F933028F408
:1034200080E090E00E94FC1B089598E5980F9B3186
:1034300028F480E090E00E94D71B089593E3980F52
:10344000933118F460E00E94EA180895CF9388231E
:1034500009F4BDC0C82F8238B1F40E94211C81FD3F
:10346000B6C069E382EA91E00E94A21B0E9492101A
:103470002FEF87EE93E0215080409040E1F700C0AD
:10348000000069E317C08338E1F40E94211C80FD2D
:103490009EC063E582EA91E00E94A21B0E94921006
:1034A0002FEF81EE94E0215080409040E1F700C082
:1034B000000063E582EA91E00E947A1B0E9492106C
:1034C00086C08438B1F40E94211C82FD80C067E46C
:1034D00082EA91E00E94A21B0E9492102FEF81EEDF
:1034E00094E0215080409040E1F700C0000067E484
:1034F000E1CF8CEF8C0F813AB8F5809106018823DB
:10350000E1F080916E0187FF18C0EC2FE695E695FB
:10351000E695F0E0EE55FE4F8281282F30E04C2FEB
:10352000477081E090E002C0880F991F4A95E2F74A
:1035300082239323892B59F411C0E4EAF1E08191AD
:10354000C81729F021E0EA3AF207C9F707C06C2F43
:1035500082EA91E00E947A1B0E9492106C2F82EA0C
:1035600091E00E94A21BAACF80E28C0F883068F401
:10357000C77081E090E001C0880FCA95EAF790918A
:103580007101892B8093710199CFEBE5EC0FE3304A
:1035900040F4F0E0EB5DFE4F808190E00E94FC1B68
:1035A00016C0E8E5EC0FEB3150F4F0E0EE0FFF1F32
:1035B000E85DFE4F808191810E94D71B08C083E3A4
:1035C0008C0F833120F461E08C2F0E94EA18CF9198
:1035D00008958091730108959B019091A101943009
:1035E000F1F48F708093E9008FEF9091E8008150A3
:1035F00095FD06C095ED9A95F1F700008111F5CF84
:103600008091E80085FF0BC0BA01C90140E050E09D
:103610000E94F10D8091E8008E778093E800089574
:1036200078941F920F920FB60F9211248F939F934D
:10363000AF93BF938091960290919702A0919802C8
:10364000B09199020196A11DB11D809396029093AD
:103650009702A0939802B0939902BF91AF919F9166
:103660008F910F900FBE0F901F9018959C014FB730
:10367000F8948091960290919702A0919802B0914F
:1036800099024FBF821B930B08952FB7F894809136
:10369000960290919702A0919802B09199022FBF43
:1036A00008951F920F920FB60F9211248F939F933C
:1036B000AF93BF9380919502811113C080919602C0
:1036C00090919702A0919802B09199024196A11D04
:1036D000B11D8093960290939702A0939802B093A5
:1036E0009902BF91AF919F918F910F900FBE0F9054
:1036F0001F901895209106012223C9F020916E0198
:1037000027FF15C0262F2695269526952E31C8F41D
:10371000FC01E20FF11D677081E090E001C0880FAD
:103720006A95EAF780959281892382830895FC0146
:1037300006962281621301C012823196E817F907BA
:10374000C1F70895209106012223C1F020916E0156
:1037500027FF14C0262F2695269526952E3130F565
:10376000FC01E20FF11D677081E090E001C0880F5D
:103770006A95EAF79281892B82830895FC0132963B
:103780002FEF30E04191641789F02F3F19F4411178
:1037900001C0232F3F5F3630A9F72F3F39F0FC01DE
:1037A000E20FF11D27FDFA95628308950895A3E0C5
:1037B000B0E0EDEDFBE10C94AB1D20919302309154
:1037C000940228173907A1F09093940280939302F2
:1037D000E0919102F0919202309751F024E0298318
:1037E0009B838A830680F781E02DCE01019609959F
:1037F0002396E2E00C94C71DA3E0B0E0E2E0FCE118
:103800000C94AB1D20918F0230919002281739073C
:10381000A1F09093900280938F02E0919102F09139
:103820009202309751F023E029839B838A8306809C
:10383000F781E02DCE01019609952396E2E00C94E4
:10384000C71DE0919102F0919202309729F001900A
:10385000F081E02D0995089580E00895A0E2B0E0A0
:10386000E4E3FCE10C94AB1D9FEF99838A83CE01C6
:1038700001960E941B0EA096E2E00C94C71D0E94C8
:10388000451B20918B02211104C020918C02222320
:1038900021F0909389028093880220918D0221115A
:1038A00004C020918E02222321F0909387028093FE
:1038B0008602E0919102F0919202309731F00480FB
:1038C000F581E02D8AE892E00995089580918502BE
:1038D00080FD18C081FD14C082FD16C08091840255
:1038E000882381F08C3380F427E0829FC00111246B
:1038F0006CE370E00E942A1E862F672B19F005C02A
:1039000083E0089581E0089587E00895809185021D
:1039100080FD17C081FD17C082FD19C08091830210
:10392000882399F08C3398F428E3829FC0011124F6
:103930006CE370E00E942A1E862F672B49F481E019
:1039400008958EE008958CE1089588E0089588E355
:103950000895282F35EB2303C001112497FF03C0DE
:103960008058910902C080589F4F892F0895109266
:10397000B9008CE08093B8000895A0E0B0E0E3ECDB
:10398000FCE10C94A21DB82EEB010E94451B6C01BA
:10399000C431D10558F0CF3F8FEFD80759F0CE0191
:1039A00064E170E00E94871D7B0107C0EE24E39470
:1039B000F12C03C025E0E22EF12C84E8A82E94EA35
:1039C000992E1092BC009092BC000E94451B8C0165
:1039D0008091BC0087FD07C0C8010E94361BE81615
:1039E000F906B0F729C08091B900887F883041F08E
:1039F0008091B900887F803119F00FEF1FEF1EC052
:103A0000B092BB00A092BC000E94451B8C0180912B
:103A1000BC0087FD07C0C8010E94361BE816F906E6
:103A2000B0F70AC08091B900887F883111F08034E6
:103A300021F700E010E00EC00EEF1FEFCF3F8FEF39
:103A4000D80709F4BECFC6010E94361BC817D90794
:103A500008F0B7CFC801CDB7DEB7EBE00C94BE1DC0
:103A60000F931F93CF93DF93EB018093BB0084E808
:103A70008093BC000E94451B8C018091BC0087FD97
:103A80000DC0CF3F8FEFD807C1F3C8010E94361B8E
:103A9000C817D90790F78EEF9FEF0CC02091B9009F
:103AA000287F81E090E0283211F480E090E0919549
:103AB00081959109DF91CF911F910F9108950F93F7
:103AC0001F93CF93DF93EC0184E88093BC000E94A6
:103AD000451B8C018091BC0087FD0DC0CF3F8FEF4F
:103AE000D807C1F3C8010E94361BC817D90790F741
:103AF0008EEF9FEF03C08091BB0090E0DF91CF91EC
:103B00001F910F91089584E98093BC000895AA1B2A
:103B1000BB1B51E107C0AA1FBB1FA617B70710F0B8
:103B2000A61BB70B881F991F5A95A9F780959095EA
:103B3000BC01CD0108952F923F924F925F926F92F8
:103B40007F928F929F92AF92BF92CF92DF92EF922D
:103B5000FF920F931F93CF93DF93CDB7DEB7CA1BAE
:103B6000DB0B0FB6F894DEBF0FBECDBF09942A88D9
:103B7000398848885F846E847D848C849B84AA8481
:103B8000B984C884DF80EE80FD800C811B81AA810E
:103B9000B981CE0FD11D0FB6F894DEBF0FBECDBFD9
:103BA000ED010895F999FECF92BD81BDF89A99274C
:103BB00080B50895A6E1B0E044E050E00C941C1EEE
:103BC000A8E1B0E042E050E00C941C1EDC01A40F20
:103BD000B51F4150504048F0CB01840F951F2E91E6
:103BE0000E94F71D41505040D0F70895262FF999B3
:103BF000FECF92BD81BDF89A019700B4021639F04C
:103C00001FBA20BD0FB6F894FA9AF99A0FBE08951C
:103C10000396272F0E94F71D0E94F61D252F0E9454
:103C2000F71D242F0C94F71D0196272F0E94F71DD6
:103C30000C94F61DDC01CB01FC01F999FECF06C006
:103C4000F2BDE1BDF89A319600B40D92415050405A
:103C5000B8F7089597FB072E16F4009407D077FD68
:103C600009D00E94871D07FC05D03EF490958195F0
:103C70009F4F0895709561957F4F0895EE0FFF1F38
:103C80000590F491E02D09940F931F93CF93DF9348
:103C90008230910510F482E090E0E0919C02F09176
:103CA0009D0220E030E0A0E0B0E0309719F14081C3
:103CB00051810281138148175907C8F0841795076D
:103CC00069F4109731F012960C93129713961C9387
:103CD00027C000939C0210939D0222C0211531053C
:103CE00019F04217530718F49A01BD01EF01DF01E3
:103CF000F801DBCF21153105F9F0281B390B2430F1
:103D0000310580F48A819B816115710521F0FB01E9
:103D10009383828304C090939D0280939C02FE0152
:103D2000329644C0FE01E20FF31F8193919322501B
:103D30003109398328833AC020919A0230919B023D
:103D4000232B41F4209102013091030130939B0217
:103D500020939A0220910001309101012115310533
:103D600041F42DB73EB74091040150910501241B49
:103D7000350BE0919A02F0919B02E217F307A0F451
:103D80002E1B3F0B2817390778F0AC014E5F5F4FB1
:103D90002417350748F04E0F5F1F50939B02409346
:103DA0009A028193919302C0E0E0F0E0CF01DF91AD
:103DB000CF911F910F910895CF93DF93009709F44E
:103DC00081C0FC01329713821282A0919C02B091B3
:103DD0009D02109781F420813181820F931F2091E1
:103DE0009A0230919B022817390751F5F0939B02F4
:103DF000E0939A0267C0ED0120E030E0CE17DF07C4
:103E000040F44A815B819E0141155105F1F0EA01C0
:103E1000F5CFD383C28340815181840F951FC8178A
:103E2000D90759F488819981840F951F029691834F
:103E300080838A819B81938382832115310529F4B4
:103E4000F0939D02E0939C023DC0E901FB83EA836D
:103E500049915991C40FD51FEC17FD0761F480817A
:103E60009181840F951F0296E9019983888382814D
:103E700093819B838A83E0E0F0E012968D919C9180
:103E80001397009719F0FD01DC01F7CF8D919C91FC
:103E900011979D012E5F3F4F820F931F20919A0231
:103EA00030919B022817390769F4309729F4109252
:103EB0009D0210929C0202C013821282B0939B0258
:103EC000A0939A02DF91CF910895FB01DC0104C019
:103ED0008D910190801921F441505040C8F7881B02
:083EE000990B0895F894FFCF3F
:103EE80000009E02200001E91A33092C0925092047
:103EF800004422476DDC01BA017301060132024B0E
:103F0800026B028402818283E200E900EA00B500C4
:103F1800B600B700CD008301CC008A01920194015C
:103F28002102230224022502260227022A02B300C4
:103F3800B4006F0070009F01CB019F02A002786D52
:0A3F480033416F2F714D765636009D
:00000001FF
